{
	"contracts/ControlStructure.sol": {
		"ControlStructure": {
			"abi": [
				{
					"inputs": [],
					"name": "DoSmt",
					"outputs": [],
					"stateMutability": "view",
					"type": "function"
				},
				{
					"inputs": [],
					"name": "isTrue",
					"outputs": [
						{
							"internalType": "bool",
							"name": "",
							"type": "bool"
						}
					],
					"stateMutability": "view",
					"type": "function"
				}
			],
			"devdoc": {
				"kind": "dev",
				"methods": {},
				"version": 1
			},
			"evm": {
				"assembly": "    /* \"contracts/ControlStructure.sol\":57:502  contract ControlStructure {... */\n  mstore(0x40, 0x80)\n    /* \"contracts/ControlStructure.sol\":89:114  bool public isTrue = true */\n  0x00\n  dup1\n  sload\n  not(0xff)\n  and\n    /* \"contracts/ControlStructure.sol\":110:114  true */\n  0x01\n    /* \"contracts/ControlStructure.sol\":89:114  bool public isTrue = true */\n  or\n  swap1\n  sstore\n    /* \"contracts/ControlStructure.sol\":57:502  contract ControlStructure {... */\n  callvalue\n  dup1\n  iszero\n  tag_1\n  jumpi\n  0x00\n  dup1\n  revert\ntag_1:\n  pop\n  dataSize(sub_0)\n  dup1\n  dataOffset(sub_0)\n  0x00\n  codecopy\n  0x00\n  return\nstop\n\nsub_0: assembly {\n        /* \"contracts/ControlStructure.sol\":57:502  contract ControlStructure {... */\n      mstore(0x40, 0x80)\n      callvalue\n      dup1\n      iszero\n      tag_1\n      jumpi\n      0x00\n      dup1\n      revert\n    tag_1:\n      pop\n      jumpi(tag_2, lt(calldatasize, 0x04))\n      shr(0xe0, calldataload(0x00))\n      dup1\n      0x74530a\n      eq\n      tag_3\n      jumpi\n      dup1\n      0x3dc9c4ac\n      eq\n      tag_4\n      jumpi\n    tag_2:\n      0x00\n      dup1\n      revert\n        /* \"contracts/ControlStructure.sol\":89:114  bool public isTrue = true */\n    tag_3:\n      sload(0x00)\n      tag_5\n      swap1\n      0xff\n      and\n      dup2\n      jump\n    tag_5:\n      mload(0x40)\n        /* \"#utility.yul\":179:193   */\n      swap1\n      iszero\n        /* \"#utility.yul\":172:194   */\n      iszero\n        /* \"#utility.yul\":154:195   */\n      dup2\n      mstore\n        /* \"#utility.yul\":142:144   */\n      0x20\n        /* \"#utility.yul\":127:145   */\n      add\n        /* \"contracts/ControlStructure.sol\":89:114  bool public isTrue = true */\n      mload(0x40)\n      dup1\n      swap2\n      sub\n      swap1\n      return\n        /* \"contracts/ControlStructure.sol\":121:500  function DoSmt() external view {... */\n    tag_4:\n      tag_9\n      tag_10\n      jump\t// in\n    tag_9:\n      stop\n    tag_10:\n        /* \"contracts/ControlStructure.sol\":166:172  isTrue */\n      and(0xff, sload(0x00))\n        /* \"contracts/ControlStructure.sol\":166:178  isTrue==true */\n      iszero\n      iszero\n        /* \"contracts/ControlStructure.sol\":166:172  isTrue */\n      0x01\n        /* \"contracts/ControlStructure.sol\":166:178  isTrue==true */\n      eq\n        /* \"contracts/ControlStructure.sol\":166:209  isTrue==true && msg.sender == address(this) */\n      dup1\n      iszero\n      tag_12\n      jumpi\n      pop\n        /* \"contracts/ControlStructure.sol\":182:192  msg.sender */\n      caller\n        /* \"contracts/ControlStructure.sol\":204:208  this */\n      address\n        /* \"contracts/ControlStructure.sol\":182:209  msg.sender == address(this) */\n      eq\n        /* \"contracts/ControlStructure.sol\":166:209  isTrue==true && msg.sender == address(this) */\n    tag_12:\n        /* \"contracts/ControlStructure.sol\":162:494  if (isTrue==true && msg.sender == address(this)) {... */\n      iszero\n      tag_13\n      jumpi\n        /* \"contracts/ControlStructure.sol\":229:235  uint i */\n      0x00\n        /* \"contracts/ControlStructure.sol\":225:262  for(uint i=0;i<10;i++){... */\n    tag_14:\n        /* \"contracts/ControlStructure.sol\":240:242  10 */\n      0x0a\n        /* \"contracts/ControlStructure.sol\":238:239  i */\n      dup2\n        /* \"contracts/ControlStructure.sol\":238:242  i<10 */\n      lt\n        /* \"contracts/ControlStructure.sol\":225:262  for(uint i=0;i<10;i++){... */\n      iszero\n      tag_15\n      jumpi\n        /* \"contracts/ControlStructure.sol\":243:246  i++ */\n      dup1\n      tag_17\n      dup2\n      tag_18\n      jump\t// in\n    tag_17:\n      swap2\n      pop\n      pop\n        /* \"contracts/ControlStructure.sol\":225:262  for(uint i=0;i<10;i++){... */\n      jump(tag_14)\n    tag_15:\n      pop\n        /* \"contracts/ControlStructure.sol\":121:500  function DoSmt() external view {... */\n      jump\t// out\n        /* \"contracts/ControlStructure.sol\":162:494  if (isTrue==true && msg.sender == address(this)) {... */\n    tag_13:\n        /* \"contracts/ControlStructure.sol\":292:484  while (isTrue){... */\n    tag_20:\n        /* \"contracts/ControlStructure.sol\":299:305  isTrue */\n      and(0xff, sload(0x00))\n        /* \"contracts/ControlStructure.sol\":391:399  continue */\n      tag_20\n        /* \"contracts/ControlStructure.sol\":292:484  while (isTrue){... */\n      jumpi\n        /* \"contracts/ControlStructure.sol\":121:500  function DoSmt() external view {... */\n      jump\t// out\n        /* \"#utility.yul\":206:438   */\n    tag_18:\n        /* \"#utility.yul\":245:248   */\n      0x00\n        /* \"#utility.yul\":266:283   */\n      0x01\n      dup3\n      add\n        /* \"#utility.yul\":263:403   */\n      tag_27\n      jumpi\n        /* \"#utility.yul\":325:335   */\n      0x4e487b71\n        /* \"#utility.yul\":320:323   */\n      0xe0\n        /* \"#utility.yul\":316:336   */\n      shl\n        /* \"#utility.yul\":313:314   */\n      0x00\n        /* \"#utility.yul\":306:337   */\n      mstore\n        /* \"#utility.yul\":360:364   */\n      0x11\n        /* \"#utility.yul\":357:358   */\n      0x04\n        /* \"#utility.yul\":350:365   */\n      mstore\n        /* \"#utility.yul\":388:392   */\n      0x24\n        /* \"#utility.yul\":385:386   */\n      0x00\n        /* \"#utility.yul\":378:393   */\n      revert\n        /* \"#utility.yul\":263:403   */\n    tag_27:\n      pop\n        /* \"#utility.yul\":430:431   */\n      0x01\n        /* \"#utility.yul\":419:432   */\n      add\n      swap1\n        /* \"#utility.yul\":206:438   */\n      jump\t// out\n\n    auxdata: 0xa2646970667358221220757ead995f4181d3653f8306502f2d111329114908186d36eaca1b325165499664736f6c63430008140033\n}\n",
				"bytecode": {
					"linkReferences": {},
					"object": "60806040525f805460ff1916600117905534801561001b575f80fd5b5060f2806100285f395ff3fe6080604052348015600e575f80fd5b5060043610602f575f3560e01c806274530a1460335780633dc9c4ac146052575b5f80fd5b5f54603e9060ff1681565b604051901515815260200160405180910390f35b6058605a565b005b5f5460ff1615156001148015606e57503330145b15608e575f5b600a811015608b57806084816099565b9150506074565b50565b5b5f5460ff16608f57565b5f6001820160b557634e487b7160e01b5f52601160045260245ffd5b506001019056fea2646970667358221220757ead995f4181d3653f8306502f2d111329114908186d36eaca1b325165499664736f6c63430008140033",
					"opcodes": "PUSH1 0x80 PUSH1 0x40 MSTORE PUSH0 DUP1 SLOAD PUSH1 0xFF NOT AND PUSH1 0x1 OR SWAP1 SSTORE CALLVALUE DUP1 ISZERO PUSH2 0x1B JUMPI PUSH0 DUP1 REVERT JUMPDEST POP PUSH1 0xF2 DUP1 PUSH2 0x28 PUSH0 CODECOPY PUSH0 RETURN INVALID PUSH1 0x80 PUSH1 0x40 MSTORE CALLVALUE DUP1 ISZERO PUSH1 0xE JUMPI PUSH0 DUP1 REVERT JUMPDEST POP PUSH1 0x4 CALLDATASIZE LT PUSH1 0x2F JUMPI PUSH0 CALLDATALOAD PUSH1 0xE0 SHR DUP1 PUSH3 0x74530A EQ PUSH1 0x33 JUMPI DUP1 PUSH4 0x3DC9C4AC EQ PUSH1 0x52 JUMPI JUMPDEST PUSH0 DUP1 REVERT JUMPDEST PUSH0 SLOAD PUSH1 0x3E SWAP1 PUSH1 0xFF AND DUP2 JUMP JUMPDEST PUSH1 0x40 MLOAD SWAP1 ISZERO ISZERO DUP2 MSTORE PUSH1 0x20 ADD PUSH1 0x40 MLOAD DUP1 SWAP2 SUB SWAP1 RETURN JUMPDEST PUSH1 0x58 PUSH1 0x5A JUMP JUMPDEST STOP JUMPDEST PUSH0 SLOAD PUSH1 0xFF AND ISZERO ISZERO PUSH1 0x1 EQ DUP1 ISZERO PUSH1 0x6E JUMPI POP CALLER ADDRESS EQ JUMPDEST ISZERO PUSH1 0x8E JUMPI PUSH0 JUMPDEST PUSH1 0xA DUP2 LT ISZERO PUSH1 0x8B JUMPI DUP1 PUSH1 0x84 DUP2 PUSH1 0x99 JUMP JUMPDEST SWAP2 POP POP PUSH1 0x74 JUMP JUMPDEST POP JUMP JUMPDEST JUMPDEST PUSH0 SLOAD PUSH1 0xFF AND PUSH1 0x8F JUMPI JUMP JUMPDEST PUSH0 PUSH1 0x1 DUP3 ADD PUSH1 0xB5 JUMPI PUSH4 0x4E487B71 PUSH1 0xE0 SHL PUSH0 MSTORE PUSH1 0x11 PUSH1 0x4 MSTORE PUSH1 0x24 PUSH0 REVERT JUMPDEST POP PUSH1 0x1 ADD SWAP1 JUMP INVALID LOG2 PUSH5 0x6970667358 0x22 SLT KECCAK256 PUSH22 0x7EAD995F4181D3653F8306502F2D111329114908186D CALLDATASIZE 0xEA 0xCA SHL ORIGIN MLOAD PUSH6 0x499664736F6C PUSH4 0x43000814 STOP CALLER "
				},
				"gasEstimates": {
					"creation": {
						"codeDepositCost": "48400",
						"executionCost": "24320",
						"totalCost": "72720"
					},
					"external": {
						"DoSmt()": "infinite",
						"isTrue()": "2274"
					}
				},
				"methodIdentifiers": {
					"DoSmt()": "3dc9c4ac",
					"isTrue()": "0074530a"
				}
			},
			"storageLayout": {
				"storage": [
					{
						"astId": 4,
						"contract": "contracts/ControlStructure.sol:ControlStructure",
						"label": "isTrue",
						"offset": 0,
						"slot": "0",
						"type": "t_bool"
					}
				],
				"types": {
					"t_bool": {
						"encoding": "inplace",
						"label": "bool",
						"numberOfBytes": "1"
					}
				}
			},
			"userdoc": {
				"kind": "user",
				"methods": {},
				"version": 1
			}
		}
	}
}