{
	"contracts/Struct.sol": {
		"Struct": {
			"abi": [
				{
					"inputs": [
						{
							"internalType": "string",
							"name": "_name",
							"type": "string"
						}
					],
					"name": "foo",
					"outputs": [],
					"stateMutability": "nonpayable",
					"type": "function"
				}
			],
			"devdoc": {
				"kind": "dev",
				"methods": {},
				"version": 1
			},
			"evm": {
				"assembly": "    /* \"contracts/Struct.sol\":57:486  contract Struct {... */\n  mstore(0x40, 0x80)\n  callvalue\n  dup1\n  iszero\n  tag_1\n  jumpi\n  0x00\n  dup1\n  revert\ntag_1:\n  pop\n  dataSize(sub_0)\n  dup1\n  dataOffset(sub_0)\n  0x00\n  codecopy\n  0x00\n  return\nstop\n\nsub_0: assembly {\n        /* \"contracts/Struct.sol\":57:486  contract Struct {... */\n      mstore(0x40, 0x80)\n      callvalue\n      dup1\n      iszero\n      tag_1\n      jumpi\n      0x00\n      dup1\n      revert\n    tag_1:\n      pop\n      jumpi(tag_2, lt(calldatasize, 0x04))\n      shr(0xe0, calldataload(0x00))\n      dup1\n      0xf31a6969\n      eq\n      tag_3\n      jumpi\n    tag_2:\n      0x00\n      dup1\n      revert\n        /* \"contracts/Struct.sol\":234:484  function foo(string calldata _name) external {... */\n    tag_3:\n      tag_4\n      tag_5\n      calldatasize\n      0x04\n      tag_6\n      jump\t// in\n    tag_5:\n      tag_7\n      jump\t// in\n    tag_4:\n      stop\n    tag_7:\n        /* \"contracts/Struct.sol\":289:310  Player memory player1 */\n      0x00\n        /* \"contracts/Struct.sol\":313:340  Player(1,msg.sender, _name) */\n      mload(0x40)\n      dup1\n      0x60\n      add\n      0x40\n      mstore\n      dup1\n        /* \"contracts/Struct.sol\":320:321  1 */\n      0x01\n        /* \"contracts/Struct.sol\":313:340  Player(1,msg.sender, _name) */\n      dup2\n      mstore\n      0x20\n      add\n        /* \"contracts/Struct.sol\":322:332  msg.sender */\n      caller\n      sub(shl(0xa0, 0x01), 0x01)\n        /* \"contracts/Struct.sol\":313:340  Player(1,msg.sender, _name) */\n      and\n      dup2\n      mstore\n      0x20\n      add\n        /* \"contracts/Struct.sol\":334:339  _name */\n      dup5\n      dup5\n        /* \"contracts/Struct.sol\":313:340  Player(1,msg.sender, _name) */\n      dup1\n      dup1\n      0x1f\n      add\n      0x20\n      dup1\n      swap2\n      div\n      mul\n      0x20\n      add\n      mload(0x40)\n      swap1\n      dup2\n      add\n      0x40\n      mstore\n      dup1\n      swap4\n      swap3\n      swap2\n      swap1\n      dup2\n      dup2\n      mstore\n      0x20\n      add\n      dup4\n      dup4\n      dup1\n      dup3\n      dup5\n      calldatacopy\n      0x00\n      swap3\n      add\n      dup3\n      swap1\n      mstore\n      pop\n      swap4\n      swap1\n      swap5\n      mstore\n      pop\n      pop\n        /* \"contracts/Struct.sol\":351:373  player1.name = \"hello\" */\n      0x40\n      dup1\n      mload\n      dup1\n      dup3\n      add\n      dup3\n      mstore\n      0x05\n      dup2\n      mstore\n      shl(0xd8, 0x68656c6c6f)\n      0x20\n      dup1\n      dup4\n      add\n      swap2\n      swap1\n      swap2\n      mstore\n        /* \"contracts/Struct.sol\":351:363  player1.name */\n      swap2\n      dup6\n      add\n        /* \"contracts/Struct.sol\":351:373  player1.name = \"hello\" */\n      swap1\n      dup2\n      mstore\n        /* \"contracts/Struct.sol\":384:405  players.push(player1) */\n      dup3\n      sload\n      0x01\n      dup2\n      add\n      dup5\n      sstore\n      swap3\n      dup1\n      mstore\n      dup5\n      mload\n      0x03\n      swap1\n      swap4\n      mul\n      0x290decd9548b62a8d60345a988386fc84ba6bc95484008f6362f93160ef3e563\n      dup2\n      add\n      swap4\n      dup5\n      sstore\n      swap2\n      dup6\n      add\n      mload\n      0x290decd9548b62a8d60345a988386fc84ba6bc95484008f6362f93160ef3e564\n      dup4\n      add\n      dup1\n      sload\n      sub(shl(0xa0, 0x01), 0x01)\n      swap1\n      swap3\n      and\n      not(sub(shl(0xa0, 0x01), 0x01))\n      swap1\n      swap3\n      and\n      swap2\n      swap1\n      swap2\n      or\n      swap1\n      sstore\n      mload\n        /* \"contracts/Struct.sol\":289:340  Player memory player1 = Player(1,msg.sender, _name) */\n      swap4\n      swap5\n      pop\n      dup5\n      swap4\n        /* \"contracts/Struct.sol\":384:405  players.push(player1) */\n      swap2\n      swap3\n      pop\n      0x290decd9548b62a8d60345a988386fc84ba6bc95484008f6362f93160ef3e565\n      add\n      swap1\n      tag_10\n      swap1\n      dup3\n      tag_11\n      jump\t// in\n    tag_10:\n      pop\n      pop\n        /* \"contracts/Struct.sol\":430:440  msg.sender */\n      caller\n        /* \"contracts/Struct.sol\":416:441  ListOfPlayers[msg.sender] */\n      0x00\n      swap1\n      dup2\n      mstore\n        /* \"contracts/Struct.sol\":416:429  ListOfPlayers */\n      0x01\n        /* \"contracts/Struct.sol\":416:441  ListOfPlayers[msg.sender] */\n      0x20\n      dup2\n      dup2\n      mstore\n      0x40\n      swap3\n      dup4\n      swap1\n      keccak256\n        /* \"contracts/Struct.sol\":416:451  ListOfPlayers[msg.sender] = player1 */\n      dup6\n      mload\n      dup2\n      sstore\n      swap1\n      dup6\n      add\n      mload\n      swap2\n      dup2\n      add\n      dup1\n      sload\n      not(sub(shl(0xa0, 0x01), 0x01))\n      and\n      sub(shl(0xa0, 0x01), 0x01)\n      swap1\n      swap4\n      and\n      swap3\n      swap1\n      swap3\n      or\n      swap1\n      swap2\n      sstore\n      swap1\n      dup4\n      add\n      mload\n      dup4\n      swap3\n      pop\n      0x02\n      dup3\n      add\n      swap1\n      tag_12\n      swap1\n      dup3\n      tag_11\n      jump\t// in\n    tag_12:\n      pop\n      pop\n      0x40\n      dup1\n      mload\n      0x60\n      dup1\n      dup3\n      add\n      dup4\n      mstore\n      0x00\n      dup1\n      dup4\n      mstore\n      0x20\n      dup4\n      add\n      mstore\n      swap2\n      add\n      mstore\n      pop\n      pop\n      pop\n      pop\n        /* \"contracts/Struct.sol\":234:484  function foo(string calldata _name) external {... */\n      jump\t// out\n        /* \"#utility.yul\":14:606   */\n    tag_6:\n        /* \"#utility.yul\":85:91   */\n      0x00\n        /* \"#utility.yul\":93:99   */\n      dup1\n        /* \"#utility.yul\":146:148   */\n      0x20\n        /* \"#utility.yul\":134:143   */\n      dup4\n        /* \"#utility.yul\":125:132   */\n      dup6\n        /* \"#utility.yul\":121:144   */\n      sub\n        /* \"#utility.yul\":117:149   */\n      slt\n        /* \"#utility.yul\":114:166   */\n      iszero\n      tag_22\n      jumpi\n        /* \"#utility.yul\":162:163   */\n      0x00\n        /* \"#utility.yul\":159:160   */\n      dup1\n        /* \"#utility.yul\":152:164   */\n      revert\n        /* \"#utility.yul\":114:166   */\n    tag_22:\n        /* \"#utility.yul\":202:211   */\n      dup3\n        /* \"#utility.yul\":189:212   */\n      calldataload\n        /* \"#utility.yul\":231:249   */\n      0xffffffffffffffff\n        /* \"#utility.yul\":272:274   */\n      dup1\n        /* \"#utility.yul\":264:270   */\n      dup3\n        /* \"#utility.yul\":261:275   */\n      gt\n        /* \"#utility.yul\":258:292   */\n      iszero\n      tag_23\n      jumpi\n        /* \"#utility.yul\":288:289   */\n      0x00\n        /* \"#utility.yul\":285:286   */\n      dup1\n        /* \"#utility.yul\":278:290   */\n      revert\n        /* \"#utility.yul\":258:292   */\n    tag_23:\n        /* \"#utility.yul\":326:332   */\n      dup2\n        /* \"#utility.yul\":315:324   */\n      dup6\n        /* \"#utility.yul\":311:333   */\n      add\n        /* \"#utility.yul\":301:333   */\n      swap2\n      pop\n        /* \"#utility.yul\":371:378   */\n      dup6\n        /* \"#utility.yul\":364:368   */\n      0x1f\n        /* \"#utility.yul\":360:362   */\n      dup4\n        /* \"#utility.yul\":356:369   */\n      add\n        /* \"#utility.yul\":352:379   */\n      slt\n        /* \"#utility.yul\":342:397   */\n      tag_24\n      jumpi\n        /* \"#utility.yul\":393:394   */\n      0x00\n        /* \"#utility.yul\":390:391   */\n      dup1\n        /* \"#utility.yul\":383:395   */\n      revert\n        /* \"#utility.yul\":342:397   */\n    tag_24:\n        /* \"#utility.yul\":433:435   */\n      dup2\n        /* \"#utility.yul\":420:436   */\n      calldataload\n        /* \"#utility.yul\":459:461   */\n      dup2\n        /* \"#utility.yul\":451:457   */\n      dup2\n        /* \"#utility.yul\":448:462   */\n      gt\n        /* \"#utility.yul\":445:479   */\n      iszero\n      tag_25\n      jumpi\n        /* \"#utility.yul\":475:476   */\n      0x00\n        /* \"#utility.yul\":472:473   */\n      dup1\n        /* \"#utility.yul\":465:477   */\n      revert\n        /* \"#utility.yul\":445:479   */\n    tag_25:\n        /* \"#utility.yul\":520:527   */\n      dup7\n        /* \"#utility.yul\":515:517   */\n      0x20\n        /* \"#utility.yul\":506:512   */\n      dup3\n        /* \"#utility.yul\":502:504   */\n      dup6\n        /* \"#utility.yul\":498:513   */\n      add\n        /* \"#utility.yul\":494:518   */\n      add\n        /* \"#utility.yul\":491:528   */\n      gt\n        /* \"#utility.yul\":488:545   */\n      iszero\n      tag_26\n      jumpi\n        /* \"#utility.yul\":541:542   */\n      0x00\n        /* \"#utility.yul\":538:539   */\n      dup1\n        /* \"#utility.yul\":531:543   */\n      revert\n        /* \"#utility.yul\":488:545   */\n    tag_26:\n        /* \"#utility.yul\":572:574   */\n      0x20\n        /* \"#utility.yul\":564:575   */\n      swap3\n      swap1\n      swap3\n      add\n      swap7\n        /* \"#utility.yul\":594:600   */\n      swap2\n      swap6\n      pop\n        /* \"#utility.yul\":14:606   */\n      swap1\n      swap4\n      pop\n      pop\n      pop\n      pop\n      jump\t// out\n        /* \"#utility.yul\":611:738   */\n    tag_15:\n        /* \"#utility.yul\":672:682   */\n      0x4e487b71\n        /* \"#utility.yul\":667:670   */\n      0xe0\n        /* \"#utility.yul\":663:683   */\n      shl\n        /* \"#utility.yul\":660:661   */\n      0x00\n        /* \"#utility.yul\":653:684   */\n      mstore\n        /* \"#utility.yul\":703:707   */\n      0x41\n        /* \"#utility.yul\":700:701   */\n      0x04\n        /* \"#utility.yul\":693:708   */\n      mstore\n        /* \"#utility.yul\":727:731   */\n      0x24\n        /* \"#utility.yul\":724:725   */\n      0x00\n        /* \"#utility.yul\":717:732   */\n      revert\n        /* \"#utility.yul\":743:1123   */\n    tag_16:\n        /* \"#utility.yul\":822:823   */\n      0x01\n        /* \"#utility.yul\":818:830   */\n      dup2\n      dup2\n      shr\n      swap1\n        /* \"#utility.yul\":865:877   */\n      dup3\n      and\n      dup1\n        /* \"#utility.yul\":886:947   */\n      tag_29\n      jumpi\n        /* \"#utility.yul\":940:944   */\n      0x7f\n        /* \"#utility.yul\":932:938   */\n      dup3\n        /* \"#utility.yul\":928:945   */\n      and\n        /* \"#utility.yul\":918:945   */\n      swap2\n      pop\n        /* \"#utility.yul\":886:947   */\n    tag_29:\n        /* \"#utility.yul\":993:995   */\n      0x20\n        /* \"#utility.yul\":985:991   */\n      dup3\n        /* \"#utility.yul\":982:996   */\n      lt\n        /* \"#utility.yul\":962:980   */\n      dup2\n        /* \"#utility.yul\":959:997   */\n      sub\n        /* \"#utility.yul\":956:1117   */\n      tag_30\n      jumpi\n        /* \"#utility.yul\":1039:1049   */\n      0x4e487b71\n        /* \"#utility.yul\":1034:1037   */\n      0xe0\n        /* \"#utility.yul\":1030:1050   */\n      shl\n        /* \"#utility.yul\":1027:1028   */\n      0x00\n        /* \"#utility.yul\":1020:1051   */\n      mstore\n        /* \"#utility.yul\":1074:1078   */\n      0x22\n        /* \"#utility.yul\":1071:1072   */\n      0x04\n        /* \"#utility.yul\":1064:1079   */\n      mstore\n        /* \"#utility.yul\":1102:1106   */\n      0x24\n        /* \"#utility.yul\":1099:1100   */\n      0x00\n        /* \"#utility.yul\":1092:1107   */\n      revert\n        /* \"#utility.yul\":956:1117   */\n    tag_30:\n      pop\n        /* \"#utility.yul\":743:1123   */\n      swap2\n      swap1\n      pop\n      jump\t// out\n        /* \"#utility.yul\":1254:1799   */\n    tag_18:\n        /* \"#utility.yul\":1356:1358   */\n      0x1f\n        /* \"#utility.yul\":1351:1354   */\n      dup3\n        /* \"#utility.yul\":1348:1359   */\n      gt\n        /* \"#utility.yul\":1345:1793   */\n      iszero\n      tag_33\n      jumpi\n        /* \"#utility.yul\":1392:1393   */\n      0x00\n        /* \"#utility.yul\":1417:1422   */\n      dup2\n        /* \"#utility.yul\":1413:1415   */\n      dup2\n        /* \"#utility.yul\":1406:1423   */\n      mstore\n        /* \"#utility.yul\":1462:1466   */\n      0x20\n        /* \"#utility.yul\":1458:1460   */\n      dup2\n        /* \"#utility.yul\":1448:1467   */\n      keccak256\n        /* \"#utility.yul\":1532:1534   */\n      0x1f\n        /* \"#utility.yul\":1520:1530   */\n      dup6\n        /* \"#utility.yul\":1516:1535   */\n      add\n        /* \"#utility.yul\":1513:1514   */\n      0x05\n        /* \"#utility.yul\":1509:1536   */\n      shr\n        /* \"#utility.yul\":1503:1507   */\n      dup2\n        /* \"#utility.yul\":1499:1537   */\n      add\n        /* \"#utility.yul\":1568:1572   */\n      0x20\n        /* \"#utility.yul\":1556:1566   */\n      dup7\n        /* \"#utility.yul\":1553:1573   */\n      lt\n        /* \"#utility.yul\":1550:1597   */\n      iszero\n      tag_34\n      jumpi\n      pop\n        /* \"#utility.yul\":1591:1595   */\n      dup1\n        /* \"#utility.yul\":1550:1597   */\n    tag_34:\n        /* \"#utility.yul\":1646:1648   */\n      0x1f\n        /* \"#utility.yul\":1641:1644   */\n      dup6\n        /* \"#utility.yul\":1637:1649   */\n      add\n        /* \"#utility.yul\":1634:1635   */\n      0x05\n        /* \"#utility.yul\":1630:1650   */\n      shr\n        /* \"#utility.yul\":1624:1628   */\n      dup3\n        /* \"#utility.yul\":1620:1651   */\n      add\n        /* \"#utility.yul\":1610:1651   */\n      swap2\n      pop\n        /* \"#utility.yul\":1701:1783   */\n    tag_35:\n        /* \"#utility.yul\":1719:1721   */\n      dup2\n        /* \"#utility.yul\":1712:1717   */\n      dup2\n        /* \"#utility.yul\":1709:1722   */\n      lt\n        /* \"#utility.yul\":1701:1783   */\n      iszero\n      tag_37\n      jumpi\n        /* \"#utility.yul\":1764:1781   */\n      dup3\n      dup2\n      sstore\n        /* \"#utility.yul\":1745:1746   */\n      0x01\n        /* \"#utility.yul\":1734:1747   */\n      add\n        /* \"#utility.yul\":1701:1783   */\n      jump(tag_35)\n    tag_37:\n        /* \"#utility.yul\":1705:1708   */\n      pop\n      pop\n      pop\n        /* \"#utility.yul\":1345:1793   */\n    tag_33:\n        /* \"#utility.yul\":1254:1799   */\n      pop\n      pop\n      pop\n      jump\t// out\n        /* \"#utility.yul\":1975:3327   */\n    tag_11:\n        /* \"#utility.yul\":2101:2104   */\n      dup2\n        /* \"#utility.yul\":2095:2105   */\n      mload\n        /* \"#utility.yul\":2128:2146   */\n      0xffffffffffffffff\n        /* \"#utility.yul\":2120:2126   */\n      dup2\n        /* \"#utility.yul\":2117:2147   */\n      gt\n        /* \"#utility.yul\":2114:2170   */\n      iszero\n      tag_41\n      jumpi\n        /* \"#utility.yul\":2150:2168   */\n      tag_41\n      tag_15\n      jump\t// in\n    tag_41:\n        /* \"#utility.yul\":2179:2276   */\n      tag_42\n        /* \"#utility.yul\":2269:2275   */\n      dup2\n        /* \"#utility.yul\":2229:2267   */\n      tag_43\n        /* \"#utility.yul\":2261:2265   */\n      dup5\n        /* \"#utility.yul\":2255:2266   */\n      sload\n        /* \"#utility.yul\":2229:2267   */\n      tag_16\n      jump\t// in\n    tag_43:\n        /* \"#utility.yul\":2223:2227   */\n      dup5\n        /* \"#utility.yul\":2179:2276   */\n      tag_18\n      jump\t// in\n    tag_42:\n        /* \"#utility.yul\":2331:2335   */\n      0x20\n      dup1\n        /* \"#utility.yul\":2395:2397   */\n      0x1f\n        /* \"#utility.yul\":2384:2398   */\n      dup4\n      gt\n        /* \"#utility.yul\":2412:2413   */\n      0x01\n        /* \"#utility.yul\":2407:3070   */\n      dup2\n      eq\n      tag_45\n      jumpi\n        /* \"#utility.yul\":3114:3115   */\n      0x00\n        /* \"#utility.yul\":3131:3137   */\n      dup5\n        /* \"#utility.yul\":3128:3217   */\n      iszero\n      tag_46\n      jumpi\n      pop\n        /* \"#utility.yul\":3183:3202   */\n      dup6\n      dup4\n      add\n        /* \"#utility.yul\":3177:3203   */\n      mload\n        /* \"#utility.yul\":3128:3217   */\n    tag_46:\n      not(0x00)\n        /* \"#utility.yul\":1932:1933   */\n      0x03\n        /* \"#utility.yul\":1928:1939   */\n      dup7\n      swap1\n      shl\n        /* \"#utility.yul\":1924:1948   */\n      shr\n        /* \"#utility.yul\":1920:1949   */\n      not\n        /* \"#utility.yul\":1910:1950   */\n      and\n        /* \"#utility.yul\":1956:1957   */\n      0x01\n        /* \"#utility.yul\":1952:1963   */\n      dup6\n      swap1\n      shl\n        /* \"#utility.yul\":1907:1964   */\n      or\n        /* \"#utility.yul\":3230:3311   */\n      dup6\n      sstore\n        /* \"#utility.yul\":2377:3321   */\n      jump(tag_37)\n        /* \"#utility.yul\":2407:3070   */\n    tag_45:\n        /* \"#utility.yul\":1201:1202   */\n      0x00\n        /* \"#utility.yul\":1194:1208   */\n      dup6\n      dup2\n      mstore\n        /* \"#utility.yul\":1238:1242   */\n      0x20\n        /* \"#utility.yul\":1225:1243   */\n      dup2\n      keccak256\n      not(0x1f)\n        /* \"#utility.yul\":2443:2463   */\n      dup7\n      and\n      swap2\n        /* \"#utility.yul\":2561:2797   */\n    tag_49:\n        /* \"#utility.yul\":2575:2582   */\n      dup3\n        /* \"#utility.yul\":2572:2573   */\n      dup2\n        /* \"#utility.yul\":2569:2583   */\n      lt\n        /* \"#utility.yul\":2561:2797   */\n      iszero\n      tag_51\n      jumpi\n        /* \"#utility.yul\":2664:2683   */\n      dup9\n      dup7\n      add\n        /* \"#utility.yul\":2658:2684   */\n      mload\n        /* \"#utility.yul\":2643:2685   */\n      dup3\n      sstore\n        /* \"#utility.yul\":2756:2783   */\n      swap5\n      dup5\n      add\n      swap5\n        /* \"#utility.yul\":2724:2725   */\n      0x01\n        /* \"#utility.yul\":2712:2726   */\n      swap1\n      swap2\n      add\n      swap1\n        /* \"#utility.yul\":2591:2610   */\n      dup5\n      add\n        /* \"#utility.yul\":2561:2797   */\n      jump(tag_49)\n    tag_51:\n        /* \"#utility.yul\":2565:2568   */\n      pop\n        /* \"#utility.yul\":2825:2831   */\n      dup6\n        /* \"#utility.yul\":2816:2823   */\n      dup3\n        /* \"#utility.yul\":2813:2832   */\n      lt\n        /* \"#utility.yul\":2810:3011   */\n      iszero\n      tag_52\n      jumpi\n        /* \"#utility.yul\":2886:2905   */\n      dup8\n      dup6\n      add\n        /* \"#utility.yul\":2880:2906   */\n      mload\n      not(0x00)\n        /* \"#utility.yul\":2969:2970   */\n      0x03\n        /* \"#utility.yul\":2965:2979   */\n      dup9\n      swap1\n      shl\n        /* \"#utility.yul\":2981:2984   */\n      0xf8\n        /* \"#utility.yul\":2961:2985   */\n      and\n        /* \"#utility.yul\":2957:2994   */\n      shr\n        /* \"#utility.yul\":2953:2995   */\n      not\n        /* \"#utility.yul\":2938:2996   */\n      and\n        /* \"#utility.yul\":2923:2997   */\n      dup2\n      sstore\n        /* \"#utility.yul\":2810:3011   */\n    tag_52:\n      pop\n      pop\n      pop\n      pop\n      pop\n        /* \"#utility.yul\":3057:3058   */\n      0x01\n        /* \"#utility.yul\":3041:3055   */\n      swap1\n      dup2\n      shl\n        /* \"#utility.yul\":3037:3059   */\n      add\n        /* \"#utility.yul\":3024:3060   */\n      swap1\n      sstore\n      pop\n        /* \"#utility.yul\":1975:3327   */\n      jump\t// out\n\n    auxdata: 0xa26469706673582212208925963359bce2ddd52f152dd3c0613db8b356735e633e45e0a926569d71ed4b64736f6c63430008140033\n}\n",
				"bytecode": {
					"linkReferences": {},
					"object": "608060405234801561000f575f80fd5b506103de8061001d5f395ff3fe608060405234801561000f575f80fd5b5060043610610029575f3560e01c8063f31a69691461002d575b5f80fd5b61004061003b3660046101e6565b610042565b005b5f604051806060016040528060018152602001336001600160a01b0316815260200184848080601f0160208091040260200160405190810160405280939291908181526020018383808284375f920182905250939094525050604080518082018252600581526468656c6c6f60d81b6020808301919091529185019081528254600181018455928052845160039093027f290decd9548b62a8d60345a988386fc84ba6bc95484008f6362f93160ef3e5638101938455918501517f290decd9548b62a8d60345a988386fc84ba6bc95484008f6362f93160ef3e564830180546001600160a01b039092166001600160a01b03199092169190911790555193945084939192507f290decd9548b62a8d60345a988386fc84ba6bc95484008f6362f93160ef3e565019061017490826102ec565b5050335f90815260016020818152604092839020855181559085015191810180546001600160a01b0319166001600160a01b03909316929092179091559083015183925060028201906101c790826102ec565b505060408051606080820183525f808352602083015291015250505050565b5f80602083850312156101f7575f80fd5b823567ffffffffffffffff8082111561020e575f80fd5b818501915085601f830112610221575f80fd5b81358181111561022f575f80fd5b866020828501011115610240575f80fd5b60209290920196919550909350505050565b634e487b7160e01b5f52604160045260245ffd5b600181811c9082168061027a57607f821691505b60208210810361029857634e487b7160e01b5f52602260045260245ffd5b50919050565b601f8211156102e7575f81815260208120601f850160051c810160208610156102c45750805b601f850160051c820191505b818110156102e3578281556001016102d0565b5050505b505050565b815167ffffffffffffffff81111561030657610306610252565b61031a816103148454610266565b8461029e565b602080601f83116001811461034d575f84156103365750858301515b5f19600386901b1c1916600185901b1785556102e3565b5f85815260208120601f198616915b8281101561037b5788860151825594840194600190910190840161035c565b508582101561039857878501515f19600388901b60f8161c191681555b5050505050600190811b0190555056fea26469706673582212208925963359bce2ddd52f152dd3c0613db8b356735e633e45e0a926569d71ed4b64736f6c63430008140033",
					"opcodes": "PUSH1 0x80 PUSH1 0x40 MSTORE CALLVALUE DUP1 ISZERO PUSH2 0xF JUMPI PUSH0 DUP1 REVERT JUMPDEST POP PUSH2 0x3DE DUP1 PUSH2 0x1D PUSH0 CODECOPY PUSH0 RETURN INVALID PUSH1 0x80 PUSH1 0x40 MSTORE CALLVALUE DUP1 ISZERO PUSH2 0xF JUMPI PUSH0 DUP1 REVERT JUMPDEST POP PUSH1 0x4 CALLDATASIZE LT PUSH2 0x29 JUMPI PUSH0 CALLDATALOAD PUSH1 0xE0 SHR DUP1 PUSH4 0xF31A6969 EQ PUSH2 0x2D JUMPI JUMPDEST PUSH0 DUP1 REVERT JUMPDEST PUSH2 0x40 PUSH2 0x3B CALLDATASIZE PUSH1 0x4 PUSH2 0x1E6 JUMP JUMPDEST PUSH2 0x42 JUMP JUMPDEST STOP JUMPDEST PUSH0 PUSH1 0x40 MLOAD DUP1 PUSH1 0x60 ADD PUSH1 0x40 MSTORE DUP1 PUSH1 0x1 DUP2 MSTORE PUSH1 0x20 ADD CALLER PUSH1 0x1 PUSH1 0x1 PUSH1 0xA0 SHL SUB AND DUP2 MSTORE PUSH1 0x20 ADD DUP5 DUP5 DUP1 DUP1 PUSH1 0x1F ADD PUSH1 0x20 DUP1 SWAP2 DIV MUL PUSH1 0x20 ADD PUSH1 0x40 MLOAD SWAP1 DUP2 ADD PUSH1 0x40 MSTORE DUP1 SWAP4 SWAP3 SWAP2 SWAP1 DUP2 DUP2 MSTORE PUSH1 0x20 ADD DUP4 DUP4 DUP1 DUP3 DUP5 CALLDATACOPY PUSH0 SWAP3 ADD DUP3 SWAP1 MSTORE POP SWAP4 SWAP1 SWAP5 MSTORE POP POP PUSH1 0x40 DUP1 MLOAD DUP1 DUP3 ADD DUP3 MSTORE PUSH1 0x5 DUP2 MSTORE PUSH5 0x68656C6C6F PUSH1 0xD8 SHL PUSH1 0x20 DUP1 DUP4 ADD SWAP2 SWAP1 SWAP2 MSTORE SWAP2 DUP6 ADD SWAP1 DUP2 MSTORE DUP3 SLOAD PUSH1 0x1 DUP2 ADD DUP5 SSTORE SWAP3 DUP1 MSTORE DUP5 MLOAD PUSH1 0x3 SWAP1 SWAP4 MUL PUSH32 0x290DECD9548B62A8D60345A988386FC84BA6BC95484008F6362F93160EF3E563 DUP2 ADD SWAP4 DUP5 SSTORE SWAP2 DUP6 ADD MLOAD PUSH32 0x290DECD9548B62A8D60345A988386FC84BA6BC95484008F6362F93160EF3E564 DUP4 ADD DUP1 SLOAD PUSH1 0x1 PUSH1 0x1 PUSH1 0xA0 SHL SUB SWAP1 SWAP3 AND PUSH1 0x1 PUSH1 0x1 PUSH1 0xA0 SHL SUB NOT SWAP1 SWAP3 AND SWAP2 SWAP1 SWAP2 OR SWAP1 SSTORE MLOAD SWAP4 SWAP5 POP DUP5 SWAP4 SWAP2 SWAP3 POP PUSH32 0x290DECD9548B62A8D60345A988386FC84BA6BC95484008F6362F93160EF3E565 ADD SWAP1 PUSH2 0x174 SWAP1 DUP3 PUSH2 0x2EC JUMP JUMPDEST POP POP CALLER PUSH0 SWAP1 DUP2 MSTORE PUSH1 0x1 PUSH1 0x20 DUP2 DUP2 MSTORE PUSH1 0x40 SWAP3 DUP4 SWAP1 KECCAK256 DUP6 MLOAD DUP2 SSTORE SWAP1 DUP6 ADD MLOAD SWAP2 DUP2 ADD DUP1 SLOAD PUSH1 0x1 PUSH1 0x1 PUSH1 0xA0 SHL SUB NOT AND PUSH1 0x1 PUSH1 0x1 PUSH1 0xA0 SHL SUB SWAP1 SWAP4 AND SWAP3 SWAP1 SWAP3 OR SWAP1 SWAP2 SSTORE SWAP1 DUP4 ADD MLOAD DUP4 SWAP3 POP PUSH1 0x2 DUP3 ADD SWAP1 PUSH2 0x1C7 SWAP1 DUP3 PUSH2 0x2EC JUMP JUMPDEST POP POP PUSH1 0x40 DUP1 MLOAD PUSH1 0x60 DUP1 DUP3 ADD DUP4 MSTORE PUSH0 DUP1 DUP4 MSTORE PUSH1 0x20 DUP4 ADD MSTORE SWAP2 ADD MSTORE POP POP POP POP JUMP JUMPDEST PUSH0 DUP1 PUSH1 0x20 DUP4 DUP6 SUB SLT ISZERO PUSH2 0x1F7 JUMPI PUSH0 DUP1 REVERT JUMPDEST DUP3 CALLDATALOAD PUSH8 0xFFFFFFFFFFFFFFFF DUP1 DUP3 GT ISZERO PUSH2 0x20E JUMPI PUSH0 DUP1 REVERT JUMPDEST DUP2 DUP6 ADD SWAP2 POP DUP6 PUSH1 0x1F DUP4 ADD SLT PUSH2 0x221 JUMPI PUSH0 DUP1 REVERT JUMPDEST DUP2 CALLDATALOAD DUP2 DUP2 GT ISZERO PUSH2 0x22F JUMPI PUSH0 DUP1 REVERT JUMPDEST DUP7 PUSH1 0x20 DUP3 DUP6 ADD ADD GT ISZERO PUSH2 0x240 JUMPI PUSH0 DUP1 REVERT JUMPDEST PUSH1 0x20 SWAP3 SWAP1 SWAP3 ADD SWAP7 SWAP2 SWAP6 POP SWAP1 SWAP4 POP POP POP POP JUMP JUMPDEST PUSH4 0x4E487B71 PUSH1 0xE0 SHL PUSH0 MSTORE PUSH1 0x41 PUSH1 0x4 MSTORE PUSH1 0x24 PUSH0 REVERT JUMPDEST PUSH1 0x1 DUP2 DUP2 SHR SWAP1 DUP3 AND DUP1 PUSH2 0x27A JUMPI PUSH1 0x7F DUP3 AND SWAP2 POP JUMPDEST PUSH1 0x20 DUP3 LT DUP2 SUB PUSH2 0x298 JUMPI PUSH4 0x4E487B71 PUSH1 0xE0 SHL PUSH0 MSTORE PUSH1 0x22 PUSH1 0x4 MSTORE PUSH1 0x24 PUSH0 REVERT JUMPDEST POP SWAP2 SWAP1 POP JUMP JUMPDEST PUSH1 0x1F DUP3 GT ISZERO PUSH2 0x2E7 JUMPI PUSH0 DUP2 DUP2 MSTORE PUSH1 0x20 DUP2 KECCAK256 PUSH1 0x1F DUP6 ADD PUSH1 0x5 SHR DUP2 ADD PUSH1 0x20 DUP7 LT ISZERO PUSH2 0x2C4 JUMPI POP DUP1 JUMPDEST PUSH1 0x1F DUP6 ADD PUSH1 0x5 SHR DUP3 ADD SWAP2 POP JUMPDEST DUP2 DUP2 LT ISZERO PUSH2 0x2E3 JUMPI DUP3 DUP2 SSTORE PUSH1 0x1 ADD PUSH2 0x2D0 JUMP JUMPDEST POP POP POP JUMPDEST POP POP POP JUMP JUMPDEST DUP2 MLOAD PUSH8 0xFFFFFFFFFFFFFFFF DUP2 GT ISZERO PUSH2 0x306 JUMPI PUSH2 0x306 PUSH2 0x252 JUMP JUMPDEST PUSH2 0x31A DUP2 PUSH2 0x314 DUP5 SLOAD PUSH2 0x266 JUMP JUMPDEST DUP5 PUSH2 0x29E JUMP JUMPDEST PUSH1 0x20 DUP1 PUSH1 0x1F DUP4 GT PUSH1 0x1 DUP2 EQ PUSH2 0x34D JUMPI PUSH0 DUP5 ISZERO PUSH2 0x336 JUMPI POP DUP6 DUP4 ADD MLOAD JUMPDEST PUSH0 NOT PUSH1 0x3 DUP7 SWAP1 SHL SHR NOT AND PUSH1 0x1 DUP6 SWAP1 SHL OR DUP6 SSTORE PUSH2 0x2E3 JUMP JUMPDEST PUSH0 DUP6 DUP2 MSTORE PUSH1 0x20 DUP2 KECCAK256 PUSH1 0x1F NOT DUP7 AND SWAP2 JUMPDEST DUP3 DUP2 LT ISZERO PUSH2 0x37B JUMPI DUP9 DUP7 ADD MLOAD DUP3 SSTORE SWAP5 DUP5 ADD SWAP5 PUSH1 0x1 SWAP1 SWAP2 ADD SWAP1 DUP5 ADD PUSH2 0x35C JUMP JUMPDEST POP DUP6 DUP3 LT ISZERO PUSH2 0x398 JUMPI DUP8 DUP6 ADD MLOAD PUSH0 NOT PUSH1 0x3 DUP9 SWAP1 SHL PUSH1 0xF8 AND SHR NOT AND DUP2 SSTORE JUMPDEST POP POP POP POP POP PUSH1 0x1 SWAP1 DUP2 SHL ADD SWAP1 SSTORE POP JUMP INVALID LOG2 PUSH5 0x6970667358 0x22 SLT KECCAK256 DUP10 0x25 SWAP7 CALLER MSIZE 0xBC 0xE2 0xDD 0xD5 0x2F ISZERO 0x2D 0xD3 0xC0 PUSH2 0x3DB8 0xB3 JUMP PUSH20 0x5E633E45E0A926569D71ED4B64736F6C63430008 EQ STOP CALLER "
				},
				"gasEstimates": {
					"creation": {
						"codeDepositCost": "198000",
						"executionCost": "236",
						"totalCost": "198236"
					},
					"external": {
						"foo(string)": "infinite"
					}
				},
				"methodIdentifiers": {
					"foo(string)": "f31a6969"
				}
			},
			"storageLayout": {
				"storage": [
					{
						"astId": 12,
						"contract": "contracts/Struct.sol:Struct",
						"label": "players",
						"offset": 0,
						"slot": "0",
						"type": "t_array(t_struct(Player)8_storage)dyn_storage"
					},
					{
						"astId": 17,
						"contract": "contracts/Struct.sol:Struct",
						"label": "ListOfPlayers",
						"offset": 0,
						"slot": "1",
						"type": "t_mapping(t_address,t_struct(Player)8_storage)"
					}
				],
				"types": {
					"t_address": {
						"encoding": "inplace",
						"label": "address",
						"numberOfBytes": "20"
					},
					"t_array(t_struct(Player)8_storage)dyn_storage": {
						"base": "t_struct(Player)8_storage",
						"encoding": "dynamic_array",
						"label": "struct Struct.Player[]",
						"numberOfBytes": "32"
					},
					"t_mapping(t_address,t_struct(Player)8_storage)": {
						"encoding": "mapping",
						"key": "t_address",
						"label": "mapping(address => struct Struct.Player)",
						"numberOfBytes": "32",
						"value": "t_struct(Player)8_storage"
					},
					"t_string_storage": {
						"encoding": "bytes",
						"label": "string",
						"numberOfBytes": "32"
					},
					"t_struct(Player)8_storage": {
						"encoding": "inplace",
						"label": "struct Struct.Player",
						"members": [
							{
								"astId": 3,
								"contract": "contracts/Struct.sol:Struct",
								"label": "id",
								"offset": 0,
								"slot": "0",
								"type": "t_uint256"
							},
							{
								"astId": 5,
								"contract": "contracts/Struct.sol:Struct",
								"label": "addr",
								"offset": 0,
								"slot": "1",
								"type": "t_address"
							},
							{
								"astId": 7,
								"contract": "contracts/Struct.sol:Struct",
								"label": "name",
								"offset": 0,
								"slot": "2",
								"type": "t_string_storage"
							}
						],
						"numberOfBytes": "96"
					},
					"t_uint256": {
						"encoding": "inplace",
						"label": "uint256",
						"numberOfBytes": "32"
					}
				}
			},
			"userdoc": {
				"kind": "user",
				"methods": {},
				"version": 1
			}
		}
	}
}