{
	"contracts/SendReceiveEth.sol": {
		"SendReceive": {
			"abi": [
				{
					"inputs": [],
					"name": "BuySth",
					"outputs": [],
					"stateMutability": "payable",
					"type": "function"
				},
				{
					"inputs": [
						{
							"internalType": "address payable",
							"name": "to",
							"type": "address"
						},
						{
							"internalType": "uint256",
							"name": "amount",
							"type": "uint256"
						}
					],
					"name": "send",
					"outputs": [],
					"stateMutability": "nonpayable",
					"type": "function"
				},
				{
					"stateMutability": "payable",
					"type": "receive"
				}
			],
			"devdoc": {
				"kind": "dev",
				"methods": {},
				"version": 1
			},
			"evm": {
				"assembly": "    /* \"contracts/SendReceiveEth.sol\":57:355  contract SendReceive {... */\n  mstore(0x40, 0x80)\n  callvalue\n  dup1\n  iszero\n  tag_1\n  jumpi\n  0x00\n  dup1\n  revert\ntag_1:\n  pop\n  dataSize(sub_0)\n  dup1\n  dataOffset(sub_0)\n  0x00\n  codecopy\n  0x00\n  return\nstop\n\nsub_0: assembly {\n        /* \"contracts/SendReceiveEth.sol\":57:355  contract SendReceive {... */\n      mstore(0x40, 0x80)\n      jumpi(tag_1, lt(calldatasize, 0x04))\n      shr(0xe0, calldataload(0x00))\n      dup1\n      0xc8de1c1c\n      eq\n      tag_3\n      jumpi\n      dup1\n      0xd0679d34\n      eq\n      tag_4\n      jumpi\n      0x00\n      dup1\n      revert\n    tag_1:\n      jumpi(tag_2, calldatasize)\n      stop\n    tag_2:\n      0x00\n      dup1\n      revert\n        /* \"contracts/SendReceiveEth.sol\":189:302  function BuySth() external payable {... */\n    tag_3:\n      stop\n        /* \"contracts/SendReceiveEth.sol\":84:183  function send(address payable to, uint amount) external {... */\n    tag_4:\n      callvalue\n      dup1\n      iszero\n      tag_9\n      jumpi\n      0x00\n      dup1\n      revert\n    tag_9:\n      pop\n      tag_3\n      tag_11\n      calldatasize\n      0x04\n      tag_12\n      jump\t// in\n    tag_11:\n        /* \"contracts/SendReceiveEth.sol\":150:169  to.transfer(amount) */\n      mload(0x40)\n      sub(shl(0xa0, 0x01), 0x01)\n        /* \"contracts/SendReceiveEth.sol\":150:161  to.transfer */\n      dup4\n      and\n      swap1\n        /* \"contracts/SendReceiveEth.sol\":150:169  to.transfer(amount) */\n      dup3\n      iszero\n      0x08fc\n      mul\n      swap1\n        /* \"contracts/SendReceiveEth.sol\":162:168  amount */\n      dup4\n      swap1\n        /* \"contracts/SendReceiveEth.sol\":150:169  to.transfer(amount) */\n      0x00\n      dup2\n      dup2\n      dup2\n        /* \"contracts/SendReceiveEth.sol\":162:168  amount */\n      dup6\n        /* \"contracts/SendReceiveEth.sol\":150:161  to.transfer */\n      dup9\n        /* \"contracts/SendReceiveEth.sol\":150:169  to.transfer(amount) */\n      dup9\n      call\n      swap4\n      pop\n      pop\n      pop\n      pop\n      iszero\n      dup1\n      iszero\n      tag_18\n      jumpi\n      returndatasize\n      0x00\n      dup1\n      returndatacopy\n      revert(0x00, returndatasize)\n    tag_18:\n      pop\n        /* \"contracts/SendReceiveEth.sol\":84:183  function send(address payable to, uint amount) external {... */\n      pop\n      pop\n      jump\t// out\n        /* \"#utility.yul\":14:376   */\n    tag_12:\n        /* \"#utility.yul\":90:96   */\n      0x00\n        /* \"#utility.yul\":98:104   */\n      dup1\n        /* \"#utility.yul\":151:153   */\n      0x40\n        /* \"#utility.yul\":139:148   */\n      dup4\n        /* \"#utility.yul\":130:137   */\n      dup6\n        /* \"#utility.yul\":126:149   */\n      sub\n        /* \"#utility.yul\":122:154   */\n      slt\n        /* \"#utility.yul\":119:171   */\n      iszero\n      tag_21\n      jumpi\n        /* \"#utility.yul\":167:168   */\n      0x00\n        /* \"#utility.yul\":164:165   */\n      dup1\n        /* \"#utility.yul\":157:169   */\n      revert\n        /* \"#utility.yul\":119:171   */\n    tag_21:\n        /* \"#utility.yul\":193:216   */\n      dup3\n      calldataload\n      sub(shl(0xa0, 0x01), 0x01)\n        /* \"#utility.yul\":245:276   */\n      dup2\n      and\n        /* \"#utility.yul\":235:277   */\n      dup2\n      eq\n        /* \"#utility.yul\":225:295   */\n      tag_22\n      jumpi\n        /* \"#utility.yul\":291:292   */\n      0x00\n        /* \"#utility.yul\":288:289   */\n      dup1\n        /* \"#utility.yul\":281:293   */\n      revert\n        /* \"#utility.yul\":225:295   */\n    tag_22:\n        /* \"#utility.yul\":314:319   */\n      swap5\n        /* \"#utility.yul\":366:368   */\n      0x20\n        /* \"#utility.yul\":351:369   */\n      swap4\n      swap1\n      swap4\n      add\n        /* \"#utility.yul\":338:370   */\n      calldataload\n      swap4\n      pop\n      pop\n      pop\n        /* \"#utility.yul\":14:376   */\n      jump\t// out\n\n    auxdata: 0xa26469706673582212209b8bc9b08c9f882f4fb6dcd14ae3344076f901165352905dd7740b394530698864736f6c63430008140033\n}\n",
				"bytecode": {
					"linkReferences": {},
					"object": "608060405234801561000f575f80fd5b5060ea8061001c5f395ff3fe6080604052600436106028575f3560e01c8063c8de1c1c146032578063d0679d34146034575f80fd5b36602e57005b5f80fd5b005b348015603e575f80fd5b506032604a3660046081565b6040516001600160a01b0383169082156108fc029083905f818181858888f19350505050158015607c573d5f803e3d5ffd5b505050565b5f80604083850312156091575f80fd5b82356001600160a01b038116811460a6575f80fd5b94602093909301359350505056fea26469706673582212209b8bc9b08c9f882f4fb6dcd14ae3344076f901165352905dd7740b394530698864736f6c63430008140033",
					"opcodes": "PUSH1 0x80 PUSH1 0x40 MSTORE CALLVALUE DUP1 ISZERO PUSH2 0xF JUMPI PUSH0 DUP1 REVERT JUMPDEST POP PUSH1 0xEA DUP1 PUSH2 0x1C PUSH0 CODECOPY PUSH0 RETURN INVALID PUSH1 0x80 PUSH1 0x40 MSTORE PUSH1 0x4 CALLDATASIZE LT PUSH1 0x28 JUMPI PUSH0 CALLDATALOAD PUSH1 0xE0 SHR DUP1 PUSH4 0xC8DE1C1C EQ PUSH1 0x32 JUMPI DUP1 PUSH4 0xD0679D34 EQ PUSH1 0x34 JUMPI PUSH0 DUP1 REVERT JUMPDEST CALLDATASIZE PUSH1 0x2E JUMPI STOP JUMPDEST PUSH0 DUP1 REVERT JUMPDEST STOP JUMPDEST CALLVALUE DUP1 ISZERO PUSH1 0x3E JUMPI PUSH0 DUP1 REVERT JUMPDEST POP PUSH1 0x32 PUSH1 0x4A CALLDATASIZE PUSH1 0x4 PUSH1 0x81 JUMP JUMPDEST PUSH1 0x40 MLOAD PUSH1 0x1 PUSH1 0x1 PUSH1 0xA0 SHL SUB DUP4 AND SWAP1 DUP3 ISZERO PUSH2 0x8FC MUL SWAP1 DUP4 SWAP1 PUSH0 DUP2 DUP2 DUP2 DUP6 DUP9 DUP9 CALL SWAP4 POP POP POP POP ISZERO DUP1 ISZERO PUSH1 0x7C JUMPI RETURNDATASIZE PUSH0 DUP1 RETURNDATACOPY RETURNDATASIZE PUSH0 REVERT JUMPDEST POP POP POP JUMP JUMPDEST PUSH0 DUP1 PUSH1 0x40 DUP4 DUP6 SUB SLT ISZERO PUSH1 0x91 JUMPI PUSH0 DUP1 REVERT JUMPDEST DUP3 CALLDATALOAD PUSH1 0x1 PUSH1 0x1 PUSH1 0xA0 SHL SUB DUP2 AND DUP2 EQ PUSH1 0xA6 JUMPI PUSH0 DUP1 REVERT JUMPDEST SWAP5 PUSH1 0x20 SWAP4 SWAP1 SWAP4 ADD CALLDATALOAD SWAP4 POP POP POP JUMP INVALID LOG2 PUSH5 0x6970667358 0x22 SLT KECCAK256 SWAP12 DUP12 0xC9 0xB0 DUP13 SWAP16 DUP9 0x2F 0x4F 0xB6 0xDC 0xD1 0x4A 0xE3 CALLVALUE BLOCKHASH PUSH23 0xF901165352905DD7740B394530698864736F6C63430008 EQ STOP CALLER "
				},
				"gasEstimates": {
					"creation": {
						"codeDepositCost": "46800",
						"executionCost": "97",
						"totalCost": "46897"
					},
					"external": {
						"BuySth()": "73",
						"send(address,uint256)": "infinite"
					}
				},
				"methodIdentifiers": {
					"BuySth()": "c8de1c1c",
					"send(address,uint256)": "d0679d34"
				}
			},
			"storageLayout": {
				"storage": [],
				"types": null
			},
			"userdoc": {
				"kind": "user",
				"methods": {},
				"version": 1
			}
		}
	}
}