{
	"contracts/StorageArray.sol": {
		"Array": {
			"abi": [
				{
					"inputs": [],
					"name": "DoSmt",
					"outputs": [],
					"stateMutability": "nonpayable",
					"type": "function"
				}
			],
			"devdoc": {
				"kind": "dev",
				"methods": {},
				"version": 1
			},
			"evm": {
				"assembly": "    /* \"contracts/StorageArray.sol\":57:393  contract Array {... */\n  mstore(0x40, 0x80)\n  callvalue\n  dup1\n  iszero\n  tag_1\n  jumpi\n  0x00\n  dup1\n  revert\ntag_1:\n  pop\n  dataSize(sub_0)\n  dup1\n  dataOffset(sub_0)\n  0x00\n  codecopy\n  0x00\n  return\nstop\n\nsub_0: assembly {\n        /* \"contracts/StorageArray.sol\":57:393  contract Array {... */\n      mstore(0x40, 0x80)\n      callvalue\n      dup1\n      iszero\n      tag_1\n      jumpi\n      0x00\n      dup1\n      revert\n    tag_1:\n      pop\n      jumpi(tag_2, lt(calldatasize, 0x04))\n      shr(0xe0, calldataload(0x00))\n      dup1\n      0x3dc9c4ac\n      eq\n      tag_3\n      jumpi\n    tag_2:\n      0x00\n      dup1\n      revert\n        /* \"contracts/StorageArray.sol\":124:346  function DoSmt() external  {... */\n    tag_3:\n      tag_4\n      tag_5\n      jump\t// in\n    tag_4:\n      stop\n    tag_5:\n        /* \"contracts/StorageArray.sol\":161:164  arr */\n      0x00\n        /* \"contracts/StorageArray.sol\":161:172  arr.push(2) */\n      dup1\n      sload\n      0x01\n      dup2\n      dup2\n      add\n      dup4\n      sstore\n      dup3\n      dup1\n      mstore\n        /* \"contracts/StorageArray.sol\":170:171  2 */\n      0x02\n        /* \"contracts/StorageArray.sol\":161:172  arr.push(2) */\n      0x290decd9548b62a8d60345a988386fc84ba6bc95484008f6362f93160ef3e563\n      swap3\n      dup4\n      add\n      sstore\n        /* \"contracts/StorageArray.sol\":189:200  arr.push(5) */\n      dup3\n      sload\n      dup1\n      dup3\n      add\n      dup5\n      sstore\n        /* \"contracts/StorageArray.sol\":198:199  5 */\n      0x05\n        /* \"contracts/StorageArray.sol\":189:200  arr.push(5) */\n      swap3\n      add\n      swap2\n      swap1\n      swap2\n      sstore\n        /* \"contracts/StorageArray.sol\":219:225  arr[0] */\n      dup2\n      sload\n        /* \"contracts/StorageArray.sol\":161:172  arr.push(2) */\n      swap1\n      swap2\n        /* \"contracts/StorageArray.sol\":161:164  arr */\n      swap1\n      dup2\n      swap1\n        /* \"contracts/StorageArray.sol\":219:225  arr[0] */\n      tag_10\n      jumpi\n      tag_10\n      tag_11\n      jump\t// in\n    tag_10:\n      swap1\n      0x00\n      mstore\n      keccak256(0x00, 0x20)\n      add\n        /* \"contracts/StorageArray.sol\":219:229  arr[0] = 1 */\n      dup2\n      swap1\n      sstore\n      pop\n        /* \"contracts/StorageArray.sol\":256:259  arr */\n      0x00\n        /* \"contracts/StorageArray.sol\":260:261  0 */\n      dup1\n        /* \"contracts/StorageArray.sol\":256:262  arr[0] */\n      dup2\n      sload\n      dup2\n      lt\n      tag_14\n      jumpi\n      tag_14\n      tag_11\n      jump\t// in\n    tag_14:\n      swap1\n      0x00\n      mstore\n      keccak256(0x00, 0x20)\n      add\n        /* \"contracts/StorageArray.sol\":249:262  delete arr[0] */\n      0x00\n      swap1\n      sstore\n        /* \"contracts/StorageArray.sol\":290:296  uint i */\n      0x00\n        /* \"contracts/StorageArray.sol\":285:340  for (uint i=0;i<arr.length;i++){... */\n    tag_16:\n        /* \"contracts/StorageArray.sol\":301:304  arr */\n      0x00\n        /* \"contracts/StorageArray.sol\":301:311  arr.length */\n      sload\n        /* \"contracts/StorageArray.sol\":299:311  i<arr.length */\n      dup2\n      lt\n        /* \"contracts/StorageArray.sol\":285:340  for (uint i=0;i<arr.length;i++){... */\n      iszero\n      tag_17\n      jumpi\n        /* \"contracts/StorageArray.sol\":312:315  i++ */\n      dup1\n      tag_19\n      dup2\n      tag_20\n      jump\t// in\n    tag_19:\n      swap2\n      pop\n      pop\n        /* \"contracts/StorageArray.sol\":285:340  for (uint i=0;i<arr.length;i++){... */\n      jump(tag_16)\n    tag_17:\n      pop\n        /* \"contracts/StorageArray.sol\":124:346  function DoSmt() external  {... */\n      jump\t// out\n        /* \"#utility.yul\":14:141   */\n    tag_11:\n        /* \"#utility.yul\":75:85   */\n      0x4e487b71\n        /* \"#utility.yul\":70:73   */\n      0xe0\n        /* \"#utility.yul\":66:86   */\n      shl\n        /* \"#utility.yul\":63:64   */\n      0x00\n        /* \"#utility.yul\":56:87   */\n      mstore\n        /* \"#utility.yul\":106:110   */\n      0x32\n        /* \"#utility.yul\":103:104   */\n      0x04\n        /* \"#utility.yul\":96:111   */\n      mstore\n        /* \"#utility.yul\":130:134   */\n      0x24\n        /* \"#utility.yul\":127:128   */\n      0x00\n        /* \"#utility.yul\":120:135   */\n      revert\n        /* \"#utility.yul\":146:378   */\n    tag_20:\n        /* \"#utility.yul\":185:188   */\n      0x00\n        /* \"#utility.yul\":206:223   */\n      0x01\n      dup3\n      add\n        /* \"#utility.yul\":203:343   */\n      tag_24\n      jumpi\n        /* \"#utility.yul\":265:275   */\n      0x4e487b71\n        /* \"#utility.yul\":260:263   */\n      0xe0\n        /* \"#utility.yul\":256:276   */\n      shl\n        /* \"#utility.yul\":253:254   */\n      0x00\n        /* \"#utility.yul\":246:277   */\n      mstore\n        /* \"#utility.yul\":300:304   */\n      0x11\n        /* \"#utility.yul\":297:298   */\n      0x04\n        /* \"#utility.yul\":290:305   */\n      mstore\n        /* \"#utility.yul\":328:332   */\n      0x24\n        /* \"#utility.yul\":325:326   */\n      0x00\n        /* \"#utility.yul\":318:333   */\n      revert\n        /* \"#utility.yul\":203:343   */\n    tag_24:\n      pop\n        /* \"#utility.yul\":370:371   */\n      0x01\n        /* \"#utility.yul\":359:372   */\n      add\n      swap1\n        /* \"#utility.yul\":146:378   */\n      jump\t// out\n\n    auxdata: 0xa264697066735822122051634269f050b28c1c53f665a2f89ce1a5cc4c861366bea9bee6f6fc8372f3cd64736f6c63430008140033\n}\n",
				"bytecode": {
					"linkReferences": {},
					"object": "608060405234801561000f575f80fd5b506101448061001d5f395ff3fe608060405234801561000f575f80fd5b5060043610610029575f3560e01c80633dc9c4ac1461002d575b5f80fd5b610035610037565b005b5f80546001818101835582805260027f290decd9548b62a8d60345a988386fc84ba6bc95484008f6362f93160ef3e563928301558254808201845560059201919091558154909190819061008d5761008d6100d6565b905f5260205f2001819055505f80815481106100ab576100ab6100d6565b905f5260205f20015f90555f5b5f548110156100d357806100cb816100ea565b9150506100b8565b50565b634e487b7160e01b5f52603260045260245ffd5b5f6001820161010757634e487b7160e01b5f52601160045260245ffd5b506001019056fea264697066735822122051634269f050b28c1c53f665a2f89ce1a5cc4c861366bea9bee6f6fc8372f3cd64736f6c63430008140033",
					"opcodes": "PUSH1 0x80 PUSH1 0x40 MSTORE CALLVALUE DUP1 ISZERO PUSH2 0xF JUMPI PUSH0 DUP1 REVERT JUMPDEST POP PUSH2 0x144 DUP1 PUSH2 0x1D PUSH0 CODECOPY PUSH0 RETURN INVALID PUSH1 0x80 PUSH1 0x40 MSTORE CALLVALUE DUP1 ISZERO PUSH2 0xF JUMPI PUSH0 DUP1 REVERT JUMPDEST POP PUSH1 0x4 CALLDATASIZE LT PUSH2 0x29 JUMPI PUSH0 CALLDATALOAD PUSH1 0xE0 SHR DUP1 PUSH4 0x3DC9C4AC EQ PUSH2 0x2D JUMPI JUMPDEST PUSH0 DUP1 REVERT JUMPDEST PUSH2 0x35 PUSH2 0x37 JUMP JUMPDEST STOP JUMPDEST PUSH0 DUP1 SLOAD PUSH1 0x1 DUP2 DUP2 ADD DUP4 SSTORE DUP3 DUP1 MSTORE PUSH1 0x2 PUSH32 0x290DECD9548B62A8D60345A988386FC84BA6BC95484008F6362F93160EF3E563 SWAP3 DUP4 ADD SSTORE DUP3 SLOAD DUP1 DUP3 ADD DUP5 SSTORE PUSH1 0x5 SWAP3 ADD SWAP2 SWAP1 SWAP2 SSTORE DUP2 SLOAD SWAP1 SWAP2 SWAP1 DUP2 SWAP1 PUSH2 0x8D JUMPI PUSH2 0x8D PUSH2 0xD6 JUMP JUMPDEST SWAP1 PUSH0 MSTORE PUSH1 0x20 PUSH0 KECCAK256 ADD DUP2 SWAP1 SSTORE POP PUSH0 DUP1 DUP2 SLOAD DUP2 LT PUSH2 0xAB JUMPI PUSH2 0xAB PUSH2 0xD6 JUMP JUMPDEST SWAP1 PUSH0 MSTORE PUSH1 0x20 PUSH0 KECCAK256 ADD PUSH0 SWAP1 SSTORE PUSH0 JUMPDEST PUSH0 SLOAD DUP2 LT ISZERO PUSH2 0xD3 JUMPI DUP1 PUSH2 0xCB DUP2 PUSH2 0xEA JUMP JUMPDEST SWAP2 POP POP PUSH2 0xB8 JUMP JUMPDEST POP JUMP JUMPDEST PUSH4 0x4E487B71 PUSH1 0xE0 SHL PUSH0 MSTORE PUSH1 0x32 PUSH1 0x4 MSTORE PUSH1 0x24 PUSH0 REVERT JUMPDEST PUSH0 PUSH1 0x1 DUP3 ADD PUSH2 0x107 JUMPI PUSH4 0x4E487B71 PUSH1 0xE0 SHL PUSH0 MSTORE PUSH1 0x11 PUSH1 0x4 MSTORE PUSH1 0x24 PUSH0 REVERT JUMPDEST POP PUSH1 0x1 ADD SWAP1 JUMP INVALID LOG2 PUSH5 0x6970667358 0x22 SLT KECCAK256 MLOAD PUSH4 0x4269F050 0xB2 DUP13 SHR MSTORE8 0xF6 PUSH6 0xA2F89CE1A5CC 0x4C DUP7 SGT PUSH7 0xBEA9BEE6F6FC83 PUSH19 0xF3CD64736F6C63430008140033000000000000 "
				},
				"gasEstimates": {
					"creation": {
						"codeDepositCost": "64800",
						"executionCost": "115",
						"totalCost": "64915"
					},
					"external": {
						"DoSmt()": "infinite"
					}
				},
				"methodIdentifiers": {
					"DoSmt()": "3dc9c4ac"
				}
			},
			"storageLayout": {
				"storage": [
					{
						"astId": 4,
						"contract": "contracts/StorageArray.sol:Array",
						"label": "arr",
						"offset": 0,
						"slot": "0",
						"type": "t_array(t_uint256)dyn_storage"
					}
				],
				"types": {
					"t_array(t_uint256)dyn_storage": {
						"base": "t_uint256",
						"encoding": "dynamic_array",
						"label": "uint256[]",
						"numberOfBytes": "32"
					},
					"t_uint256": {
						"encoding": "inplace",
						"label": "uint256",
						"numberOfBytes": "32"
					}
				}
			},
			"userdoc": {
				"kind": "user",
				"methods": {},
				"version": 1
			}
		}
	}
}