{
	"contracts/ContractInteraction.sol": {
		"IHello": {
			"abi": [
				{
					"inputs": [],
					"name": "CallFoo",
					"outputs": [],
					"stateMutability": "nonpayable",
					"type": "function"
				},
				{
					"inputs": [
						{
							"internalType": "address",
							"name": "_AHello",
							"type": "address"
						}
					],
					"name": "setAHello",
					"outputs": [],
					"stateMutability": "nonpayable",
					"type": "function"
				}
			],
			"devdoc": {
				"kind": "dev",
				"methods": {},
				"version": 1
			},
			"evm": {
				"assembly": "    /* \"contracts/ContractInteraction.sol\":541:784  contract IHello {... */\n  mstore(0x40, 0x80)\n  callvalue\n  dup1\n  iszero\n  tag_1\n  jumpi\n  0x00\n  dup1\n  revert\ntag_1:\n  pop\n  dataSize(sub_0)\n  dup1\n  dataOffset(sub_0)\n  0x00\n  codecopy\n  0x00\n  return\nstop\n\nsub_0: assembly {\n        /* \"contracts/ContractInteraction.sol\":541:784  contract IHello {... */\n      mstore(0x40, 0x80)\n      callvalue\n      dup1\n      iszero\n      tag_1\n      jumpi\n      0x00\n      dup1\n      revert\n    tag_1:\n      pop\n      jumpi(tag_2, lt(calldatasize, 0x04))\n      shr(0xe0, calldataload(0x00))\n      dup1\n      0x08dd4598\n      eq\n      tag_3\n      jumpi\n      dup1\n      0xa3350477\n      eq\n      tag_4\n      jumpi\n    tag_2:\n      0x00\n      dup1\n      revert\n        /* \"contracts/ContractInteraction.sol\":665:781  function CallFoo() external  {... */\n    tag_3:\n      tag_5\n      tag_6\n      jump\t// in\n    tag_5:\n      stop\n        /* \"contracts/ContractInteraction.sol\":583:659  function setAHello(address _AHello) external {... */\n    tag_4:\n      tag_5\n      tag_8\n      calldatasize\n      0x04\n      tag_9\n      jump\t// in\n    tag_8:\n        /* \"contracts/ContractInteraction.sol\":638:644  AHello */\n      0x00\n        /* \"contracts/ContractInteraction.sol\":638:652  AHello=_AHello */\n      dup1\n      sload\n      not(sub(shl(0xa0, 0x01), 0x01))\n      and\n      sub(shl(0xa0, 0x01), 0x01)\n      swap3\n      swap1\n      swap3\n      and\n      swap2\n      swap1\n      swap2\n      or\n      swap1\n      sstore\n        /* \"contracts/ContractInteraction.sol\":583:659  function setAHello(address _AHello) external {... */\n      jump\n        /* \"contracts/ContractInteraction.sol\":665:781  function CallFoo() external  {... */\n    tag_6:\n        /* \"contracts/ContractInteraction.sol\":704:726  IContractInteraction h */\n      0x00\n        /* \"contracts/ContractInteraction.sol\":750:756  AHello */\n      dup1\n      sload\n        /* \"contracts/ContractInteraction.sol\":767:774  h.bar() */\n      0x40\n      dup1\n      mload\n      shl(0xe1, 0x7f5d87bf)\n      dup2\n      mstore\n      swap1\n      mload\n      sub(shl(0xa0, 0x01), 0x01)\n        /* \"contracts/ContractInteraction.sol\":750:756  AHello */\n      swap1\n      swap3\n      and\n      swap3\n      dup4\n      swap3\n        /* \"contracts/ContractInteraction.sol\":767:772  h.bar */\n      0xfebb0f7e\n      swap3\n        /* \"contracts/ContractInteraction.sol\":767:774  h.bar() */\n      0x04\n      dup1\n      dup3\n      add\n      swap4\n        /* \"contracts/ContractInteraction.sol\":704:726  IContractInteraction h */\n      swap3\n        /* \"contracts/ContractInteraction.sol\":767:774  h.bar() */\n      swap2\n      dup3\n      swap1\n      sub\n      add\n      dup2\n        /* \"contracts/ContractInteraction.sol\":704:726  IContractInteraction h */\n      dup4\n        /* \"contracts/ContractInteraction.sol\":750:756  AHello */\n      dup8\n        /* \"contracts/ContractInteraction.sol\":767:774  h.bar() */\n      dup1\n      extcodesize\n      iszero\n      dup1\n      iszero\n      tag_12\n      jumpi\n      0x00\n      dup1\n      revert\n    tag_12:\n      pop\n      gas\n      call\n      iszero\n      dup1\n      iszero\n      tag_14\n      jumpi\n      returndatasize\n      0x00\n      dup1\n      returndatacopy\n      revert(0x00, returndatasize)\n    tag_14:\n      pop\n      pop\n      pop\n      pop\n        /* \"contracts/ContractInteraction.sol\":694:781  {... */\n      pop\n        /* \"contracts/ContractInteraction.sol\":665:781  function CallFoo() external  {... */\n      jump\t// out\n        /* \"#utility.yul\":14:300   */\n    tag_9:\n        /* \"#utility.yul\":73:79   */\n      0x00\n        /* \"#utility.yul\":126:128   */\n      0x20\n        /* \"#utility.yul\":114:123   */\n      dup3\n        /* \"#utility.yul\":105:112   */\n      dup5\n        /* \"#utility.yul\":101:124   */\n      sub\n        /* \"#utility.yul\":97:129   */\n      slt\n        /* \"#utility.yul\":94:146   */\n      iszero\n      tag_18\n      jumpi\n        /* \"#utility.yul\":142:143   */\n      0x00\n        /* \"#utility.yul\":139:140   */\n      dup1\n        /* \"#utility.yul\":132:144   */\n      revert\n        /* \"#utility.yul\":94:146   */\n    tag_18:\n        /* \"#utility.yul\":168:191   */\n      dup2\n      calldataload\n      sub(shl(0xa0, 0x01), 0x01)\n        /* \"#utility.yul\":220:251   */\n      dup2\n      and\n        /* \"#utility.yul\":210:252   */\n      dup2\n      eq\n        /* \"#utility.yul\":200:270   */\n      tag_19\n      jumpi\n        /* \"#utility.yul\":266:267   */\n      0x00\n        /* \"#utility.yul\":263:264   */\n      dup1\n        /* \"#utility.yul\":256:268   */\n      revert\n        /* \"#utility.yul\":200:270   */\n    tag_19:\n        /* \"#utility.yul\":289:294   */\n      swap4\n        /* \"#utility.yul\":14:300   */\n      swap3\n      pop\n      pop\n      pop\n      jump\t// out\n\n    auxdata: 0xa26469706673582212202c55140cfef2d7fae4b2b5f9c769f7d5e8914310726f3cd978237709326e0d9264736f6c63430008140033\n}\n",
				"bytecode": {
					"linkReferences": {},
					"object": "608060405234801561000f575f80fd5b506101238061001d5f395ff3fe6080604052348015600e575f80fd5b50600436106030575f3560e01c806308dd4598146034578063a335047714603c575b5f80fd5b603a6068565b005b603a604736600460c2565b5f80546001600160a01b0319166001600160a01b0392909216919091179055565b5f805460408051637f5d87bf60e11b815290516001600160a01b0390921692839263febb0f7e92600480820193929182900301818387803b15801560aa575f80fd5b505af115801560bb573d5f803e3d5ffd5b5050505050565b5f6020828403121560d1575f80fd5b81356001600160a01b038116811460e6575f80fd5b939250505056fea26469706673582212202c55140cfef2d7fae4b2b5f9c769f7d5e8914310726f3cd978237709326e0d9264736f6c63430008140033",
					"opcodes": "PUSH1 0x80 PUSH1 0x40 MSTORE CALLVALUE DUP1 ISZERO PUSH2 0xF JUMPI PUSH0 DUP1 REVERT JUMPDEST POP PUSH2 0x123 DUP1 PUSH2 0x1D PUSH0 CODECOPY PUSH0 RETURN INVALID PUSH1 0x80 PUSH1 0x40 MSTORE CALLVALUE DUP1 ISZERO PUSH1 0xE JUMPI PUSH0 DUP1 REVERT JUMPDEST POP PUSH1 0x4 CALLDATASIZE LT PUSH1 0x30 JUMPI PUSH0 CALLDATALOAD PUSH1 0xE0 SHR DUP1 PUSH4 0x8DD4598 EQ PUSH1 0x34 JUMPI DUP1 PUSH4 0xA3350477 EQ PUSH1 0x3C JUMPI JUMPDEST PUSH0 DUP1 REVERT JUMPDEST PUSH1 0x3A PUSH1 0x68 JUMP JUMPDEST STOP JUMPDEST PUSH1 0x3A PUSH1 0x47 CALLDATASIZE PUSH1 0x4 PUSH1 0xC2 JUMP JUMPDEST PUSH0 DUP1 SLOAD PUSH1 0x1 PUSH1 0x1 PUSH1 0xA0 SHL SUB NOT AND PUSH1 0x1 PUSH1 0x1 PUSH1 0xA0 SHL SUB SWAP3 SWAP1 SWAP3 AND SWAP2 SWAP1 SWAP2 OR SWAP1 SSTORE JUMP JUMPDEST PUSH0 DUP1 SLOAD PUSH1 0x40 DUP1 MLOAD PUSH4 0x7F5D87BF PUSH1 0xE1 SHL DUP2 MSTORE SWAP1 MLOAD PUSH1 0x1 PUSH1 0x1 PUSH1 0xA0 SHL SUB SWAP1 SWAP3 AND SWAP3 DUP4 SWAP3 PUSH4 0xFEBB0F7E SWAP3 PUSH1 0x4 DUP1 DUP3 ADD SWAP4 SWAP3 SWAP2 DUP3 SWAP1 SUB ADD DUP2 DUP4 DUP8 DUP1 EXTCODESIZE ISZERO DUP1 ISZERO PUSH1 0xAA JUMPI PUSH0 DUP1 REVERT JUMPDEST POP GAS CALL ISZERO DUP1 ISZERO PUSH1 0xBB JUMPI RETURNDATASIZE PUSH0 DUP1 RETURNDATACOPY RETURNDATASIZE PUSH0 REVERT JUMPDEST POP POP POP POP POP JUMP JUMPDEST PUSH0 PUSH1 0x20 DUP3 DUP5 SUB SLT ISZERO PUSH1 0xD1 JUMPI PUSH0 DUP1 REVERT JUMPDEST DUP2 CALLDATALOAD PUSH1 0x1 PUSH1 0x1 PUSH1 0xA0 SHL SUB DUP2 AND DUP2 EQ PUSH1 0xE6 JUMPI PUSH0 DUP1 REVERT JUMPDEST SWAP4 SWAP3 POP POP POP JUMP INVALID LOG2 PUSH5 0x6970667358 0x22 SLT KECCAK256 0x2C SSTORE EQ 0xC INVALID CALLCODE 0xD7 STATICCALL 0xE4 0xB2 0xB5 0xF9 0xC7 PUSH10 0xF7D5E8914310726F3CD9 PUSH25 0x237709326E0D9264736F6C6343000814003300000000000000 "
				},
				"gasEstimates": {
					"creation": {
						"codeDepositCost": "58200",
						"executionCost": "109",
						"totalCost": "58309"
					},
					"external": {
						"CallFoo()": "infinite",
						"setAHello(address)": "24521"
					}
				},
				"methodIdentifiers": {
					"CallFoo()": "08dd4598",
					"setAHello(address)": "a3350477"
				}
			},
			"storageLayout": {
				"storage": [
					{
						"astId": 52,
						"contract": "contracts/ContractInteraction.sol:IHello",
						"label": "AHello",
						"offset": 0,
						"slot": "0",
						"type": "t_address"
					}
				],
				"types": {
					"t_address": {
						"encoding": "inplace",
						"label": "address",
						"numberOfBytes": "20"
					}
				}
			},
			"userdoc": {
				"kind": "user",
				"methods": {},
				"version": 1
			}
		}
	}
}