{
	"contracts/Inheritance.sol": {
		"Inheritance": {
			"abi": [
				{
					"inputs": [],
					"name": "a",
					"outputs": [
						{
							"internalType": "uint256",
							"name": "",
							"type": "uint256"
						}
					],
					"stateMutability": "view",
					"type": "function"
				},
				{
					"inputs": [],
					"name": "bar",
					"outputs": [],
					"stateMutability": "nonpayable",
					"type": "function"
				},
				{
					"inputs": [
						{
							"internalType": "uint256",
							"name": "testNum",
							"type": "uint256"
						}
					],
					"name": "foo",
					"outputs": [],
					"stateMutability": "nonpayable",
					"type": "function"
				},
				{
					"inputs": [
						{
							"internalType": "string",
							"name": "_name",
							"type": "string"
						}
					],
					"name": "foo",
					"outputs": [],
					"stateMutability": "nonpayable",
					"type": "function"
				},
				{
					"inputs": [],
					"name": "z",
					"outputs": [],
					"stateMutability": "nonpayable",
					"type": "function"
				}
			],
			"devdoc": {
				"kind": "dev",
				"methods": {},
				"version": 1
			},
			"evm": {
				"assembly": "    /* \"contracts/Inheritance.sol\":137:285  contract Inheritance is ErrorHandling, Struct {... */\n  mstore(0x40, 0x80)\n    /* \"contracts/ErrorHandlingNModifiers.sol\":100:102  10 */\n  0x0a\n    /* \"contracts/ErrorHandlingNModifiers.sol\":86:102  uint public a=10 */\n  0x00\n  sstore\n    /* \"contracts/ErrorHandlingNModifiers.sol\":379:437  address Admin = 0x1D8197e9C63b1cBf16Ea2896F3EB4241c6A29347 */\n  0x01\n  dup1\n  sload\n  not(sub(shl(0xa0, 0x01), 0x01))\n  and\n    /* \"contracts/ErrorHandlingNModifiers.sol\":395:437  0x1D8197e9C63b1cBf16Ea2896F3EB4241c6A29347 */\n  0x1d8197e9c63b1cbf16ea2896f3eb4241c6a29347\n    /* \"contracts/ErrorHandlingNModifiers.sol\":379:437  address Admin = 0x1D8197e9C63b1cBf16Ea2896F3EB4241c6A29347 */\n  or\n  swap1\n  sstore\n    /* \"contracts/Inheritance.sol\":235:236  6 */\n  0x06\n    /* \"contracts/Inheritance.sol\":228:236  uint b=6 */\n  0x04\n  sstore\n    /* \"contracts/Inheritance.sol\":137:285  contract Inheritance is ErrorHandling, Struct {... */\n  callvalue\n  dup1\n  iszero\n  tag_1\n  jumpi\n  0x00\n  dup1\n  revert\ntag_1:\n  pop\n  dataSize(sub_0)\n  dup1\n  dataOffset(sub_0)\n  0x00\n  codecopy\n  0x00\n  return\nstop\n\nsub_0: assembly {\n        /* \"contracts/Inheritance.sol\":137:285  contract Inheritance is ErrorHandling, Struct {... */\n      mstore(0x40, 0x80)\n      callvalue\n      dup1\n      iszero\n      tag_1\n      jumpi\n      0x00\n      dup1\n      revert\n    tag_1:\n      pop\n      jumpi(tag_2, lt(calldatasize, 0x04))\n      shr(0xe0, calldataload(0x00))\n      dup1\n      0x0dbe671f\n      eq\n      tag_3\n      jumpi\n      dup1\n      0x2fbebd38\n      eq\n      tag_4\n      jumpi\n      dup1\n      0xc5d7802e\n      eq\n      tag_5\n      jumpi\n      dup1\n      0xf31a6969\n      eq\n      tag_6\n      jumpi\n      dup1\n      0xfebb0f7e\n      eq\n      tag_7\n      jumpi\n    tag_2:\n      0x00\n      dup1\n      revert\n        /* \"contracts/ErrorHandlingNModifiers.sol\":86:102  uint public a=10 */\n    tag_3:\n      tag_8\n      sload(0x00)\n      dup2\n      jump\n    tag_8:\n      mload(0x40)\n        /* \"#utility.yul\":160:185   */\n      swap1\n      dup2\n      mstore\n        /* \"#utility.yul\":148:150   */\n      0x20\n        /* \"#utility.yul\":133:151   */\n      add\n        /* \"contracts/ErrorHandlingNModifiers.sol\":86:102  uint public a=10 */\n      mload(0x40)\n      dup1\n      swap2\n      sub\n      swap1\n      return\n        /* \"contracts/ErrorHandlingNModifiers.sol\":108:185  function foo(uint testNum) public CheckA(testNum) CheckB {... */\n    tag_4:\n      tag_12\n      tag_13\n      calldatasize\n      0x04\n      tag_14\n      jump\t// in\n    tag_13:\n      tag_15\n      jump\t// in\n    tag_12:\n      stop\n        /* \"contracts/Inheritance.sol\":242:283  function z() public {... */\n    tag_5:\n      tag_12\n        /* \"contracts/Inheritance.sol\":274:276  10 */\n      0x0a\n        /* \"contracts/Inheritance.sol\":272:273  b */\n      0x04\n        /* \"contracts/Inheritance.sol\":272:276  b=10 */\n      sstore\n        /* \"contracts/Inheritance.sol\":242:283  function z() public {... */\n      jump\n        /* \"contracts/Struct.sol\":234:484  function foo(string calldata _name) external {... */\n    tag_6:\n      tag_12\n      tag_19\n      calldatasize\n      0x04\n      tag_20\n      jump\t// in\n    tag_19:\n      tag_21\n      jump\t// in\n        /* \"contracts/ErrorHandlingNModifiers.sol\":538:592  function bar() public onlyOwner {... */\n    tag_7:\n      tag_12\n      tag_23\n      jump\t// in\n        /* \"contracts/ErrorHandlingNModifiers.sol\":108:185  function foo(uint testNum) public CheckA(testNum) CheckB {... */\n    tag_15:\n        /* \"contracts/ErrorHandlingNModifiers.sol\":149:156  testNum */\n      dup1\n        /* \"contracts/ErrorHandlingNModifiers.sol\":239:243  test */\n      dup1\n        /* \"contracts/ErrorHandlingNModifiers.sol\":236:237  a */\n      sload(0x00)\n        /* \"contracts/ErrorHandlingNModifiers.sol\":236:243  a==test */\n      eq\n        /* \"contracts/ErrorHandlingNModifiers.sol\":228:261  require(a==test,\"a need to be 8\") */\n      tag_25\n      jumpi\n      mload(0x40)\n      shl(0xe5, 0x461bcd)\n      dup2\n      mstore\n        /* \"#utility.yul\":1180:1182   */\n      0x20\n        /* \"contracts/ErrorHandlingNModifiers.sol\":228:261  require(a==test,\"a need to be 8\") */\n      0x04\n      dup3\n      add\n        /* \"#utility.yul\":1162:1183   */\n      mstore\n        /* \"#utility.yul\":1219:1221   */\n      0x0e\n        /* \"#utility.yul\":1199:1217   */\n      0x24\n      dup3\n      add\n        /* \"#utility.yul\":1192:1222   */\n      mstore\n      shl(0x93, 0x0c240dccacac840e8de40c4ca407)\n        /* \"#utility.yul\":1238:1256   */\n      0x44\n      dup3\n      add\n        /* \"#utility.yul\":1231:1275   */\n      mstore\n        /* \"#utility.yul\":1292:1310   */\n      0x64\n      add\n        /* \"contracts/ErrorHandlingNModifiers.sol\":228:261  require(a==test,\"a need to be 8\") */\n    tag_26:\n      mload(0x40)\n      dup1\n      swap2\n      sub\n      swap1\n      revert\n    tag_25:\n        /* \"contracts/ErrorHandlingNModifiers.sol\":323:324  0 */\n      0x00\n        /* \"contracts/ErrorHandlingNModifiers.sol\":321:322  a */\n      dup1\n      sload\n        /* \"contracts/ErrorHandlingNModifiers.sol\":321:324  a>0 */\n      gt\n        /* \"contracts/ErrorHandlingNModifiers.sol\":313:355  require(a>0,\"a need to be greater than 0\") */\n      tag_29\n      jumpi\n      mload(0x40)\n      shl(0xe5, 0x461bcd)\n      dup2\n      mstore\n        /* \"#utility.yul\":1523:1525   */\n      0x20\n        /* \"contracts/ErrorHandlingNModifiers.sol\":313:355  require(a>0,\"a need to be greater than 0\") */\n      0x04\n      dup3\n      add\n        /* \"#utility.yul\":1505:1526   */\n      mstore\n        /* \"#utility.yul\":1562:1564   */\n      0x1b\n        /* \"#utility.yul\":1542:1560   */\n      0x24\n      dup3\n      add\n        /* \"#utility.yul\":1535:1565   */\n      mstore\n        /* \"#utility.yul\":1601:1630   */\n      0x61206e65656420746f2062652067726561746572207468616e20300000000000\n        /* \"#utility.yul\":1581:1599   */\n      0x44\n      dup3\n      add\n        /* \"#utility.yul\":1574:1631   */\n      mstore\n        /* \"#utility.yul\":1648:1666   */\n      0x64\n      add\n        /* \"contracts/ErrorHandlingNModifiers.sol\":313:355  require(a>0,\"a need to be greater than 0\") */\n      tag_26\n        /* \"#utility.yul\":1321:1672   */\n      jump\n        /* \"contracts/ErrorHandlingNModifiers.sol\":313:355  require(a>0,\"a need to be greater than 0\") */\n    tag_29:\n      pop\n      pop\n        /* \"contracts/ErrorHandlingNModifiers.sol\":177:178  5 */\n      0x05\n        /* \"contracts/ErrorHandlingNModifiers.sol\":175:176  a */\n      0x00\n        /* \"contracts/ErrorHandlingNModifiers.sol\":175:178  a=5 */\n      sstore\n        /* \"contracts/ErrorHandlingNModifiers.sol\":108:185  function foo(uint testNum) public CheckA(testNum) CheckB {... */\n      jump\t// out\n        /* \"contracts/Struct.sol\":234:484  function foo(string calldata _name) external {... */\n    tag_21:\n        /* \"contracts/Struct.sol\":289:310  Player memory player1 */\n      0x00\n        /* \"contracts/Struct.sol\":313:340  Player(1,msg.sender, _name) */\n      mload(0x40)\n      dup1\n      0x60\n      add\n      0x40\n      mstore\n      dup1\n        /* \"contracts/Struct.sol\":320:321  1 */\n      0x01\n        /* \"contracts/Struct.sol\":313:340  Player(1,msg.sender, _name) */\n      dup2\n      mstore\n      0x20\n      add\n        /* \"contracts/Struct.sol\":322:332  msg.sender */\n      caller\n      sub(shl(0xa0, 0x01), 0x01)\n        /* \"contracts/Struct.sol\":313:340  Player(1,msg.sender, _name) */\n      and\n      dup2\n      mstore\n      0x20\n      add\n        /* \"contracts/Struct.sol\":334:339  _name */\n      dup5\n      dup5\n        /* \"contracts/Struct.sol\":313:340  Player(1,msg.sender, _name) */\n      dup1\n      dup1\n      0x1f\n      add\n      0x20\n      dup1\n      swap2\n      div\n      mul\n      0x20\n      add\n      mload(0x40)\n      swap1\n      dup2\n      add\n      0x40\n      mstore\n      dup1\n      swap4\n      swap3\n      swap2\n      swap1\n      dup2\n      dup2\n      mstore\n      0x20\n      add\n      dup4\n      dup4\n      dup1\n      dup3\n      dup5\n      calldatacopy\n      0x00\n      swap3\n      add\n      dup3\n      swap1\n      mstore\n      pop\n      swap4\n      swap1\n      swap5\n      mstore\n      pop\n      pop\n        /* \"contracts/Struct.sol\":351:373  player1.name = \"hello\" */\n      0x40\n      dup1\n      mload\n      dup1\n      dup3\n      add\n      dup3\n      mstore\n      0x05\n      dup2\n      mstore\n      shl(0xd8, 0x68656c6c6f)\n      0x20\n      dup1\n      dup4\n      add\n      swap2\n      swap1\n      swap2\n      mstore\n        /* \"contracts/Struct.sol\":351:363  player1.name */\n      swap2\n      dup6\n      add\n        /* \"contracts/Struct.sol\":351:373  player1.name = \"hello\" */\n      swap1\n      dup2\n      mstore\n        /* \"contracts/Struct.sol\":384:391  players */\n      0x02\n        /* \"contracts/Struct.sol\":384:405  players.push(player1) */\n      dup1\n      sload\n      0x01\n      dup2\n      add\n      dup3\n      sstore\n      swap4\n      mstore\n      dup5\n      mload\n      0x03\n      swap1\n      swap4\n      mul\n      0x405787fa12a823e0f2b7631cc41b3ba8828b3321ca811111fa75cd3aa3bb5ace\n      dup2\n      add\n      swap4\n      dup5\n      sstore\n      swap2\n      dup6\n      add\n      mload\n      0x405787fa12a823e0f2b7631cc41b3ba8828b3321ca811111fa75cd3aa3bb5acf\n      dup4\n      add\n      dup1\n      sload\n      sub(shl(0xa0, 0x01), 0x01)\n      swap1\n      swap3\n      and\n      not(sub(shl(0xa0, 0x01), 0x01))\n      swap1\n      swap3\n      and\n      swap2\n      swap1\n      swap2\n      or\n      swap1\n      sstore\n      mload\n        /* \"contracts/Struct.sol\":289:340  Player memory player1 = Player(1,msg.sender, _name) */\n      swap4\n      swap5\n      pop\n      dup5\n      swap4\n        /* \"contracts/Struct.sol\":384:405  players.push(player1) */\n      swap2\n      swap3\n      pop\n      0x405787fa12a823e0f2b7631cc41b3ba8828b3321ca811111fa75cd3aa3bb5ad0\n      add\n      swap1\n      tag_36\n      swap1\n      dup3\n      tag_37\n      jump\t// in\n    tag_36:\n      pop\n      pop\n        /* \"contracts/Struct.sol\":430:440  msg.sender */\n      caller\n        /* \"contracts/Struct.sol\":416:441  ListOfPlayers[msg.sender] */\n      0x00\n      swap1\n      dup2\n      mstore\n        /* \"contracts/Struct.sol\":416:429  ListOfPlayers */\n      0x03\n        /* \"contracts/Struct.sol\":416:441  ListOfPlayers[msg.sender] */\n      0x20\n      swap1\n      dup2\n      mstore\n      0x40\n      swap2\n      dup3\n      swap1\n      keccak256\n        /* \"contracts/Struct.sol\":416:451  ListOfPlayers[msg.sender] = player1 */\n      dup5\n      mload\n      dup2\n      sstore\n      swap1\n      dup5\n      add\n      mload\n      0x01\n      dup3\n      add\n      dup1\n      sload\n      not(sub(shl(0xa0, 0x01), 0x01))\n      and\n      sub(shl(0xa0, 0x01), 0x01)\n      swap1\n      swap3\n      and\n      swap2\n      swap1\n      swap2\n      or\n      swap1\n      sstore\n      swap1\n      dup4\n      add\n      mload\n      dup4\n      swap3\n      pop\n      0x02\n      dup3\n      add\n      swap1\n      tag_38\n      swap1\n      dup3\n      tag_37\n      jump\t// in\n    tag_38:\n      pop\n      pop\n      0x40\n      dup1\n      mload\n      0x60\n      dup1\n      dup3\n      add\n      dup4\n      mstore\n      0x00\n      dup1\n      dup4\n      mstore\n      0x20\n      dup4\n      add\n      mstore\n      swap2\n      add\n      mstore\n      pop\n      pop\n      pop\n      pop\n        /* \"contracts/Struct.sol\":234:484  function foo(string calldata _name) external {... */\n      jump\t// out\n        /* \"contracts/ErrorHandlingNModifiers.sol\":538:592  function bar() public onlyOwner {... */\n    tag_23:\n        /* \"contracts/ErrorHandlingNModifiers.sol\":495:500  Admin */\n      and(sub(shl(0xa0, 0x01), 0x01), sload(0x01))\n        /* \"contracts/ErrorHandlingNModifiers.sol\":483:493  msg.sender */\n      caller\n        /* \"contracts/ErrorHandlingNModifiers.sol\":483:500  msg.sender==Admin */\n      eq\n        /* \"contracts/ErrorHandlingNModifiers.sol\":475:514  require(msg.sender==Admin,\"only admin\") */\n      tag_42\n      jumpi\n      mload(0x40)\n      shl(0xe5, 0x461bcd)\n      dup2\n      mstore\n        /* \"#utility.yul\":4600:4602   */\n      0x20\n        /* \"contracts/ErrorHandlingNModifiers.sol\":475:514  require(msg.sender==Admin,\"only admin\") */\n      0x04\n      dup3\n      add\n        /* \"#utility.yul\":4582:4603   */\n      mstore\n        /* \"#utility.yul\":4639:4641   */\n      0x0a\n        /* \"#utility.yul\":4619:4637   */\n      0x24\n      dup3\n      add\n        /* \"#utility.yul\":4612:4642   */\n      mstore\n      shl(0xb1, 0x37b7363c9030b236b4b7)\n        /* \"#utility.yul\":4658:4676   */\n      0x44\n      dup3\n      add\n        /* \"#utility.yul\":4651:4691   */\n      mstore\n        /* \"#utility.yul\":4708:4726   */\n      0x64\n      add\n        /* \"contracts/ErrorHandlingNModifiers.sol\":475:514  require(msg.sender==Admin,\"only admin\") */\n      tag_26\n        /* \"#utility.yul\":4398:4732   */\n      jump\n        /* \"contracts/ErrorHandlingNModifiers.sol\":475:514  require(msg.sender==Admin,\"only admin\") */\n    tag_42:\n        /* \"contracts/ErrorHandlingNModifiers.sol\":584:585  5 */\n      0x05\n        /* \"contracts/ErrorHandlingNModifiers.sol\":580:581  a */\n      0x00\n        /* \"contracts/ErrorHandlingNModifiers.sol\":580:585  a = 5 */\n      sstore\n        /* \"contracts/ErrorHandlingNModifiers.sol\":538:592  function bar() public onlyOwner {... */\n      jump\t// out\n        /* \"#utility.yul\":196:376   */\n    tag_14:\n        /* \"#utility.yul\":255:261   */\n      0x00\n        /* \"#utility.yul\":308:310   */\n      0x20\n        /* \"#utility.yul\":296:305   */\n      dup3\n        /* \"#utility.yul\":287:294   */\n      dup5\n        /* \"#utility.yul\":283:306   */\n      sub\n        /* \"#utility.yul\":279:311   */\n      slt\n        /* \"#utility.yul\":276:328   */\n      iszero\n      tag_54\n      jumpi\n        /* \"#utility.yul\":324:325   */\n      0x00\n        /* \"#utility.yul\":321:322   */\n      dup1\n        /* \"#utility.yul\":314:326   */\n      revert\n        /* \"#utility.yul\":276:328   */\n    tag_54:\n      pop\n        /* \"#utility.yul\":347:370   */\n      calldataload\n      swap2\n        /* \"#utility.yul\":196:376   */\n      swap1\n      pop\n      jump\t// out\n        /* \"#utility.yul\":381:973   */\n    tag_20:\n        /* \"#utility.yul\":452:458   */\n      0x00\n        /* \"#utility.yul\":460:466   */\n      dup1\n        /* \"#utility.yul\":513:515   */\n      0x20\n        /* \"#utility.yul\":501:510   */\n      dup4\n        /* \"#utility.yul\":492:499   */\n      dup6\n        /* \"#utility.yul\":488:511   */\n      sub\n        /* \"#utility.yul\":484:516   */\n      slt\n        /* \"#utility.yul\":481:533   */\n      iszero\n      tag_56\n      jumpi\n        /* \"#utility.yul\":529:530   */\n      0x00\n        /* \"#utility.yul\":526:527   */\n      dup1\n        /* \"#utility.yul\":519:531   */\n      revert\n        /* \"#utility.yul\":481:533   */\n    tag_56:\n        /* \"#utility.yul\":569:578   */\n      dup3\n        /* \"#utility.yul\":556:579   */\n      calldataload\n        /* \"#utility.yul\":598:616   */\n      0xffffffffffffffff\n        /* \"#utility.yul\":639:641   */\n      dup1\n        /* \"#utility.yul\":631:637   */\n      dup3\n        /* \"#utility.yul\":628:642   */\n      gt\n        /* \"#utility.yul\":625:659   */\n      iszero\n      tag_57\n      jumpi\n        /* \"#utility.yul\":655:656   */\n      0x00\n        /* \"#utility.yul\":652:653   */\n      dup1\n        /* \"#utility.yul\":645:657   */\n      revert\n        /* \"#utility.yul\":625:659   */\n    tag_57:\n        /* \"#utility.yul\":693:699   */\n      dup2\n        /* \"#utility.yul\":682:691   */\n      dup6\n        /* \"#utility.yul\":678:700   */\n      add\n        /* \"#utility.yul\":668:700   */\n      swap2\n      pop\n        /* \"#utility.yul\":738:745   */\n      dup6\n        /* \"#utility.yul\":731:735   */\n      0x1f\n        /* \"#utility.yul\":727:729   */\n      dup4\n        /* \"#utility.yul\":723:736   */\n      add\n        /* \"#utility.yul\":719:746   */\n      slt\n        /* \"#utility.yul\":709:764   */\n      tag_58\n      jumpi\n        /* \"#utility.yul\":760:761   */\n      0x00\n        /* \"#utility.yul\":757:758   */\n      dup1\n        /* \"#utility.yul\":750:762   */\n      revert\n        /* \"#utility.yul\":709:764   */\n    tag_58:\n        /* \"#utility.yul\":800:802   */\n      dup2\n        /* \"#utility.yul\":787:803   */\n      calldataload\n        /* \"#utility.yul\":826:828   */\n      dup2\n        /* \"#utility.yul\":818:824   */\n      dup2\n        /* \"#utility.yul\":815:829   */\n      gt\n        /* \"#utility.yul\":812:846   */\n      iszero\n      tag_59\n      jumpi\n        /* \"#utility.yul\":842:843   */\n      0x00\n        /* \"#utility.yul\":839:840   */\n      dup1\n        /* \"#utility.yul\":832:844   */\n      revert\n        /* \"#utility.yul\":812:846   */\n    tag_59:\n        /* \"#utility.yul\":887:894   */\n      dup7\n        /* \"#utility.yul\":882:884   */\n      0x20\n        /* \"#utility.yul\":873:879   */\n      dup3\n        /* \"#utility.yul\":869:871   */\n      dup6\n        /* \"#utility.yul\":865:880   */\n      add\n        /* \"#utility.yul\":861:885   */\n      add\n        /* \"#utility.yul\":858:895   */\n      gt\n        /* \"#utility.yul\":855:912   */\n      iszero\n      tag_60\n      jumpi\n        /* \"#utility.yul\":908:909   */\n      0x00\n        /* \"#utility.yul\":905:906   */\n      dup1\n        /* \"#utility.yul\":898:910   */\n      revert\n        /* \"#utility.yul\":855:912   */\n    tag_60:\n        /* \"#utility.yul\":939:941   */\n      0x20\n        /* \"#utility.yul\":931:942   */\n      swap3\n      swap1\n      swap3\n      add\n      swap7\n        /* \"#utility.yul\":961:967   */\n      swap2\n      swap6\n      pop\n        /* \"#utility.yul\":381:973   */\n      swap1\n      swap4\n      pop\n      pop\n      pop\n      pop\n      jump\t// out\n        /* \"#utility.yul\":1677:1804   */\n    tag_46:\n        /* \"#utility.yul\":1738:1748   */\n      0x4e487b71\n        /* \"#utility.yul\":1733:1736   */\n      0xe0\n        /* \"#utility.yul\":1729:1749   */\n      shl\n        /* \"#utility.yul\":1726:1727   */\n      0x00\n        /* \"#utility.yul\":1719:1750   */\n      mstore\n        /* \"#utility.yul\":1769:1773   */\n      0x41\n        /* \"#utility.yul\":1766:1767   */\n      0x04\n        /* \"#utility.yul\":1759:1774   */\n      mstore\n        /* \"#utility.yul\":1793:1797   */\n      0x24\n        /* \"#utility.yul\":1790:1791   */\n      0x00\n        /* \"#utility.yul\":1783:1798   */\n      revert\n        /* \"#utility.yul\":1809:2189   */\n    tag_47:\n        /* \"#utility.yul\":1888:1889   */\n      0x01\n        /* \"#utility.yul\":1884:1896   */\n      dup2\n      dup2\n      shr\n      swap1\n        /* \"#utility.yul\":1931:1943   */\n      dup3\n      and\n      dup1\n        /* \"#utility.yul\":1952:2013   */\n      tag_65\n      jumpi\n        /* \"#utility.yul\":2006:2010   */\n      0x7f\n        /* \"#utility.yul\":1998:2004   */\n      dup3\n        /* \"#utility.yul\":1994:2011   */\n      and\n        /* \"#utility.yul\":1984:2011   */\n      swap2\n      pop\n        /* \"#utility.yul\":1952:2013   */\n    tag_65:\n        /* \"#utility.yul\":2059:2061   */\n      0x20\n        /* \"#utility.yul\":2051:2057   */\n      dup3\n        /* \"#utility.yul\":2048:2062   */\n      lt\n        /* \"#utility.yul\":2028:2046   */\n      dup2\n        /* \"#utility.yul\":2025:2063   */\n      sub\n        /* \"#utility.yul\":2022:2183   */\n      tag_66\n      jumpi\n        /* \"#utility.yul\":2105:2115   */\n      0x4e487b71\n        /* \"#utility.yul\":2100:2103   */\n      0xe0\n        /* \"#utility.yul\":2096:2116   */\n      shl\n        /* \"#utility.yul\":2093:2094   */\n      0x00\n        /* \"#utility.yul\":2086:2117   */\n      mstore\n        /* \"#utility.yul\":2140:2144   */\n      0x22\n        /* \"#utility.yul\":2137:2138   */\n      0x04\n        /* \"#utility.yul\":2130:2145   */\n      mstore\n        /* \"#utility.yul\":2168:2172   */\n      0x24\n        /* \"#utility.yul\":2165:2166   */\n      0x00\n        /* \"#utility.yul\":2158:2173   */\n      revert\n        /* \"#utility.yul\":2022:2183   */\n    tag_66:\n      pop\n        /* \"#utility.yul\":1809:2189   */\n      swap2\n      swap1\n      pop\n      jump\t// out\n        /* \"#utility.yul\":2320:2865   */\n    tag_49:\n        /* \"#utility.yul\":2422:2424   */\n      0x1f\n        /* \"#utility.yul\":2417:2420   */\n      dup3\n        /* \"#utility.yul\":2414:2425   */\n      gt\n        /* \"#utility.yul\":2411:2859   */\n      iszero\n      tag_69\n      jumpi\n        /* \"#utility.yul\":2458:2459   */\n      0x00\n        /* \"#utility.yul\":2483:2488   */\n      dup2\n        /* \"#utility.yul\":2479:2481   */\n      dup2\n        /* \"#utility.yul\":2472:2489   */\n      mstore\n        /* \"#utility.yul\":2528:2532   */\n      0x20\n        /* \"#utility.yul\":2524:2526   */\n      dup2\n        /* \"#utility.yul\":2514:2533   */\n      keccak256\n        /* \"#utility.yul\":2598:2600   */\n      0x1f\n        /* \"#utility.yul\":2586:2596   */\n      dup6\n        /* \"#utility.yul\":2582:2601   */\n      add\n        /* \"#utility.yul\":2579:2580   */\n      0x05\n        /* \"#utility.yul\":2575:2602   */\n      shr\n        /* \"#utility.yul\":2569:2573   */\n      dup2\n        /* \"#utility.yul\":2565:2603   */\n      add\n        /* \"#utility.yul\":2634:2638   */\n      0x20\n        /* \"#utility.yul\":2622:2632   */\n      dup7\n        /* \"#utility.yul\":2619:2639   */\n      lt\n        /* \"#utility.yul\":2616:2663   */\n      iszero\n      tag_70\n      jumpi\n      pop\n        /* \"#utility.yul\":2657:2661   */\n      dup1\n        /* \"#utility.yul\":2616:2663   */\n    tag_70:\n        /* \"#utility.yul\":2712:2714   */\n      0x1f\n        /* \"#utility.yul\":2707:2710   */\n      dup6\n        /* \"#utility.yul\":2703:2715   */\n      add\n        /* \"#utility.yul\":2700:2701   */\n      0x05\n        /* \"#utility.yul\":2696:2716   */\n      shr\n        /* \"#utility.yul\":2690:2694   */\n      dup3\n        /* \"#utility.yul\":2686:2717   */\n      add\n        /* \"#utility.yul\":2676:2717   */\n      swap2\n      pop\n        /* \"#utility.yul\":2767:2849   */\n    tag_71:\n        /* \"#utility.yul\":2785:2787   */\n      dup2\n        /* \"#utility.yul\":2778:2783   */\n      dup2\n        /* \"#utility.yul\":2775:2788   */\n      lt\n        /* \"#utility.yul\":2767:2849   */\n      iszero\n      tag_73\n      jumpi\n        /* \"#utility.yul\":2830:2847   */\n      dup3\n      dup2\n      sstore\n        /* \"#utility.yul\":2811:2812   */\n      0x01\n        /* \"#utility.yul\":2800:2813   */\n      add\n        /* \"#utility.yul\":2767:2849   */\n      jump(tag_71)\n    tag_73:\n        /* \"#utility.yul\":2771:2774   */\n      pop\n      pop\n      pop\n        /* \"#utility.yul\":2411:2859   */\n    tag_69:\n        /* \"#utility.yul\":2320:2865   */\n      pop\n      pop\n      pop\n      jump\t// out\n        /* \"#utility.yul\":3041:4393   */\n    tag_37:\n        /* \"#utility.yul\":3167:3170   */\n      dup2\n        /* \"#utility.yul\":3161:3171   */\n      mload\n        /* \"#utility.yul\":3194:3212   */\n      0xffffffffffffffff\n        /* \"#utility.yul\":3186:3192   */\n      dup2\n        /* \"#utility.yul\":3183:3213   */\n      gt\n        /* \"#utility.yul\":3180:3236   */\n      iszero\n      tag_77\n      jumpi\n        /* \"#utility.yul\":3216:3234   */\n      tag_77\n      tag_46\n      jump\t// in\n    tag_77:\n        /* \"#utility.yul\":3245:3342   */\n      tag_78\n        /* \"#utility.yul\":3335:3341   */\n      dup2\n        /* \"#utility.yul\":3295:3333   */\n      tag_79\n        /* \"#utility.yul\":3327:3331   */\n      dup5\n        /* \"#utility.yul\":3321:3332   */\n      sload\n        /* \"#utility.yul\":3295:3333   */\n      tag_47\n      jump\t// in\n    tag_79:\n        /* \"#utility.yul\":3289:3293   */\n      dup5\n        /* \"#utility.yul\":3245:3342   */\n      tag_49\n      jump\t// in\n    tag_78:\n        /* \"#utility.yul\":3397:3401   */\n      0x20\n      dup1\n        /* \"#utility.yul\":3461:3463   */\n      0x1f\n        /* \"#utility.yul\":3450:3464   */\n      dup4\n      gt\n        /* \"#utility.yul\":3478:3479   */\n      0x01\n        /* \"#utility.yul\":3473:4136   */\n      dup2\n      eq\n      tag_81\n      jumpi\n        /* \"#utility.yul\":4180:4181   */\n      0x00\n        /* \"#utility.yul\":4197:4203   */\n      dup5\n        /* \"#utility.yul\":4194:4283   */\n      iszero\n      tag_82\n      jumpi\n      pop\n        /* \"#utility.yul\":4249:4268   */\n      dup6\n      dup4\n      add\n        /* \"#utility.yul\":4243:4269   */\n      mload\n        /* \"#utility.yul\":4194:4283   */\n    tag_82:\n      not(0x00)\n        /* \"#utility.yul\":2998:2999   */\n      0x03\n        /* \"#utility.yul\":2994:3005   */\n      dup7\n      swap1\n      shl\n        /* \"#utility.yul\":2990:3014   */\n      shr\n        /* \"#utility.yul\":2986:3015   */\n      not\n        /* \"#utility.yul\":2976:3016   */\n      and\n        /* \"#utility.yul\":3022:3023   */\n      0x01\n        /* \"#utility.yul\":3018:3029   */\n      dup6\n      swap1\n      shl\n        /* \"#utility.yul\":2973:3030   */\n      or\n        /* \"#utility.yul\":4296:4377   */\n      dup6\n      sstore\n        /* \"#utility.yul\":3443:4387   */\n      jump(tag_73)\n        /* \"#utility.yul\":3473:4136   */\n    tag_81:\n        /* \"#utility.yul\":2267:2268   */\n      0x00\n        /* \"#utility.yul\":2260:2274   */\n      dup6\n      dup2\n      mstore\n        /* \"#utility.yul\":2304:2308   */\n      0x20\n        /* \"#utility.yul\":2291:2309   */\n      dup2\n      keccak256\n      not(0x1f)\n        /* \"#utility.yul\":3509:3529   */\n      dup7\n      and\n      swap2\n        /* \"#utility.yul\":3627:3863   */\n    tag_85:\n        /* \"#utility.yul\":3641:3648   */\n      dup3\n        /* \"#utility.yul\":3638:3639   */\n      dup2\n        /* \"#utility.yul\":3635:3649   */\n      lt\n        /* \"#utility.yul\":3627:3863   */\n      iszero\n      tag_87\n      jumpi\n        /* \"#utility.yul\":3730:3749   */\n      dup9\n      dup7\n      add\n        /* \"#utility.yul\":3724:3750   */\n      mload\n        /* \"#utility.yul\":3709:3751   */\n      dup3\n      sstore\n        /* \"#utility.yul\":3822:3849   */\n      swap5\n      dup5\n      add\n      swap5\n        /* \"#utility.yul\":3790:3791   */\n      0x01\n        /* \"#utility.yul\":3778:3792   */\n      swap1\n      swap2\n      add\n      swap1\n        /* \"#utility.yul\":3657:3676   */\n      dup5\n      add\n        /* \"#utility.yul\":3627:3863   */\n      jump(tag_85)\n    tag_87:\n        /* \"#utility.yul\":3631:3634   */\n      pop\n        /* \"#utility.yul\":3891:3897   */\n      dup6\n        /* \"#utility.yul\":3882:3889   */\n      dup3\n        /* \"#utility.yul\":3879:3898   */\n      lt\n        /* \"#utility.yul\":3876:4077   */\n      iszero\n      tag_88\n      jumpi\n        /* \"#utility.yul\":3952:3971   */\n      dup8\n      dup6\n      add\n        /* \"#utility.yul\":3946:3972   */\n      mload\n      not(0x00)\n        /* \"#utility.yul\":4035:4036   */\n      0x03\n        /* \"#utility.yul\":4031:4045   */\n      dup9\n      swap1\n      shl\n        /* \"#utility.yul\":4047:4050   */\n      0xf8\n        /* \"#utility.yul\":4027:4051   */\n      and\n        /* \"#utility.yul\":4023:4060   */\n      shr\n        /* \"#utility.yul\":4019:4061   */\n      not\n        /* \"#utility.yul\":4004:4062   */\n      and\n        /* \"#utility.yul\":3989:4063   */\n      dup2\n      sstore\n        /* \"#utility.yul\":3876:4077   */\n    tag_88:\n      pop\n      pop\n      pop\n      pop\n      pop\n        /* \"#utility.yul\":4123:4124   */\n      0x01\n        /* \"#utility.yul\":4107:4121   */\n      swap1\n      dup2\n      shl\n        /* \"#utility.yul\":4103:4125   */\n      add\n        /* \"#utility.yul\":4090:4126   */\n      swap1\n      sstore\n      pop\n        /* \"#utility.yul\":3041:4393   */\n      jump\t// out\n\n    auxdata: 0xa2646970667358221220c5563b46879caa2fe23c1910beb4cf304fd42eef6e944dd48094edc57ca3389364736f6c63430008140033\n}\n",
				"bytecode": {
					"linkReferences": {},
					"object": "6080604052600a5f55600180546001600160a01b031916731d8197e9c63b1cbf16ea2896f3eb4241c6a29347179055600660045534801561003e575f80fd5b5061054d8061004c5f395ff3fe608060405234801561000f575f80fd5b5060043610610055575f3560e01c80630dbe671f146100595780632fbebd3814610073578063c5d7802e14610088578063f31a696914610092578063febb0f7e146100a5575b5f80fd5b6100615f5481565b60405190815260200160405180910390f35b61008661008136600461033e565b6100ad565b005b610086600a600455565b6100866100a0366004610355565b61014c565b6100866102f1565b80805f54146100f45760405162461bcd60e51b815260206004820152600e60248201526d0c240dccacac840e8de40c4ca40760931b60448201526064015b60405180910390fd5b5f8054116101445760405162461bcd60e51b815260206004820152601b60248201527f61206e65656420746f2062652067726561746572207468616e2030000000000060448201526064016100eb565b505060055f55565b5f604051806060016040528060018152602001336001600160a01b0316815260200184848080601f0160208091040260200160405190810160405280939291908181526020018383808284375f920182905250939094525050604080518082018252600581526468656c6c6f60d81b602080830191909152918501908152600280546001810182559352845160039093027f405787fa12a823e0f2b7631cc41b3ba8828b3321ca811111fa75cd3aa3bb5ace8101938455918501517f405787fa12a823e0f2b7631cc41b3ba8828b3321ca811111fa75cd3aa3bb5acf830180546001600160a01b039092166001600160a01b03199092169190911790555193945084939192507f405787fa12a823e0f2b7631cc41b3ba8828b3321ca811111fa75cd3aa3bb5ad0019061027f908261045b565b5050335f9081526003602090815260409182902084518155908401516001820180546001600160a01b0319166001600160a01b039092169190911790559083015183925060028201906102d2908261045b565b505060408051606080820183525f808352602083015291015250505050565b6001546001600160a01b031633146103385760405162461bcd60e51b815260206004820152600a60248201526937b7363c9030b236b4b760b11b60448201526064016100eb565b60055f55565b5f6020828403121561034e575f80fd5b5035919050565b5f8060208385031215610366575f80fd5b823567ffffffffffffffff8082111561037d575f80fd5b818501915085601f830112610390575f80fd5b81358181111561039e575f80fd5b8660208285010111156103af575f80fd5b60209290920196919550909350505050565b634e487b7160e01b5f52604160045260245ffd5b600181811c908216806103e957607f821691505b60208210810361040757634e487b7160e01b5f52602260045260245ffd5b50919050565b601f821115610456575f81815260208120601f850160051c810160208610156104335750805b601f850160051c820191505b818110156104525782815560010161043f565b5050505b505050565b815167ffffffffffffffff811115610475576104756103c1565b6104898161048384546103d5565b8461040d565b602080601f8311600181146104bc575f84156104a55750858301515b5f19600386901b1c1916600185901b178555610452565b5f85815260208120601f198616915b828110156104ea578886015182559484019460019091019084016104cb565b508582101561050757878501515f19600388901b60f8161c191681555b5050505050600190811b0190555056fea2646970667358221220c5563b46879caa2fe23c1910beb4cf304fd42eef6e944dd48094edc57ca3389364736f6c63430008140033",
					"opcodes": "PUSH1 0x80 PUSH1 0x40 MSTORE PUSH1 0xA PUSH0 SSTORE PUSH1 0x1 DUP1 SLOAD PUSH1 0x1 PUSH1 0x1 PUSH1 0xA0 SHL SUB NOT AND PUSH20 0x1D8197E9C63B1CBF16EA2896F3EB4241C6A29347 OR SWAP1 SSTORE PUSH1 0x6 PUSH1 0x4 SSTORE CALLVALUE DUP1 ISZERO PUSH2 0x3E JUMPI PUSH0 DUP1 REVERT JUMPDEST POP PUSH2 0x54D DUP1 PUSH2 0x4C PUSH0 CODECOPY PUSH0 RETURN INVALID PUSH1 0x80 PUSH1 0x40 MSTORE CALLVALUE DUP1 ISZERO PUSH2 0xF JUMPI PUSH0 DUP1 REVERT JUMPDEST POP PUSH1 0x4 CALLDATASIZE LT PUSH2 0x55 JUMPI PUSH0 CALLDATALOAD PUSH1 0xE0 SHR DUP1 PUSH4 0xDBE671F EQ PUSH2 0x59 JUMPI DUP1 PUSH4 0x2FBEBD38 EQ PUSH2 0x73 JUMPI DUP1 PUSH4 0xC5D7802E EQ PUSH2 0x88 JUMPI DUP1 PUSH4 0xF31A6969 EQ PUSH2 0x92 JUMPI DUP1 PUSH4 0xFEBB0F7E EQ PUSH2 0xA5 JUMPI JUMPDEST PUSH0 DUP1 REVERT JUMPDEST PUSH2 0x61 PUSH0 SLOAD DUP2 JUMP JUMPDEST PUSH1 0x40 MLOAD SWAP1 DUP2 MSTORE PUSH1 0x20 ADD PUSH1 0x40 MLOAD DUP1 SWAP2 SUB SWAP1 RETURN JUMPDEST PUSH2 0x86 PUSH2 0x81 CALLDATASIZE PUSH1 0x4 PUSH2 0x33E JUMP JUMPDEST PUSH2 0xAD JUMP JUMPDEST STOP JUMPDEST PUSH2 0x86 PUSH1 0xA PUSH1 0x4 SSTORE JUMP JUMPDEST PUSH2 0x86 PUSH2 0xA0 CALLDATASIZE PUSH1 0x4 PUSH2 0x355 JUMP JUMPDEST PUSH2 0x14C JUMP JUMPDEST PUSH2 0x86 PUSH2 0x2F1 JUMP JUMPDEST DUP1 DUP1 PUSH0 SLOAD EQ PUSH2 0xF4 JUMPI PUSH1 0x40 MLOAD PUSH3 0x461BCD PUSH1 0xE5 SHL DUP2 MSTORE PUSH1 0x20 PUSH1 0x4 DUP3 ADD MSTORE PUSH1 0xE PUSH1 0x24 DUP3 ADD MSTORE PUSH14 0xC240DCCACAC840E8DE40C4CA407 PUSH1 0x93 SHL PUSH1 0x44 DUP3 ADD MSTORE PUSH1 0x64 ADD JUMPDEST PUSH1 0x40 MLOAD DUP1 SWAP2 SUB SWAP1 REVERT JUMPDEST PUSH0 DUP1 SLOAD GT PUSH2 0x144 JUMPI PUSH1 0x40 MLOAD PUSH3 0x461BCD PUSH1 0xE5 SHL DUP2 MSTORE PUSH1 0x20 PUSH1 0x4 DUP3 ADD MSTORE PUSH1 0x1B PUSH1 0x24 DUP3 ADD MSTORE PUSH32 0x61206E65656420746F2062652067726561746572207468616E20300000000000 PUSH1 0x44 DUP3 ADD MSTORE PUSH1 0x64 ADD PUSH2 0xEB JUMP JUMPDEST POP POP PUSH1 0x5 PUSH0 SSTORE JUMP JUMPDEST PUSH0 PUSH1 0x40 MLOAD DUP1 PUSH1 0x60 ADD PUSH1 0x40 MSTORE DUP1 PUSH1 0x1 DUP2 MSTORE PUSH1 0x20 ADD CALLER PUSH1 0x1 PUSH1 0x1 PUSH1 0xA0 SHL SUB AND DUP2 MSTORE PUSH1 0x20 ADD DUP5 DUP5 DUP1 DUP1 PUSH1 0x1F ADD PUSH1 0x20 DUP1 SWAP2 DIV MUL PUSH1 0x20 ADD PUSH1 0x40 MLOAD SWAP1 DUP2 ADD PUSH1 0x40 MSTORE DUP1 SWAP4 SWAP3 SWAP2 SWAP1 DUP2 DUP2 MSTORE PUSH1 0x20 ADD DUP4 DUP4 DUP1 DUP3 DUP5 CALLDATACOPY PUSH0 SWAP3 ADD DUP3 SWAP1 MSTORE POP SWAP4 SWAP1 SWAP5 MSTORE POP POP PUSH1 0x40 DUP1 MLOAD DUP1 DUP3 ADD DUP3 MSTORE PUSH1 0x5 DUP2 MSTORE PUSH5 0x68656C6C6F PUSH1 0xD8 SHL PUSH1 0x20 DUP1 DUP4 ADD SWAP2 SWAP1 SWAP2 MSTORE SWAP2 DUP6 ADD SWAP1 DUP2 MSTORE PUSH1 0x2 DUP1 SLOAD PUSH1 0x1 DUP2 ADD DUP3 SSTORE SWAP4 MSTORE DUP5 MLOAD PUSH1 0x3 SWAP1 SWAP4 MUL PUSH32 0x405787FA12A823E0F2B7631CC41B3BA8828B3321CA811111FA75CD3AA3BB5ACE DUP2 ADD SWAP4 DUP5 SSTORE SWAP2 DUP6 ADD MLOAD PUSH32 0x405787FA12A823E0F2B7631CC41B3BA8828B3321CA811111FA75CD3AA3BB5ACF DUP4 ADD DUP1 SLOAD PUSH1 0x1 PUSH1 0x1 PUSH1 0xA0 SHL SUB SWAP1 SWAP3 AND PUSH1 0x1 PUSH1 0x1 PUSH1 0xA0 SHL SUB NOT SWAP1 SWAP3 AND SWAP2 SWAP1 SWAP2 OR SWAP1 SSTORE MLOAD SWAP4 SWAP5 POP DUP5 SWAP4 SWAP2 SWAP3 POP PUSH32 0x405787FA12A823E0F2B7631CC41B3BA8828B3321CA811111FA75CD3AA3BB5AD0 ADD SWAP1 PUSH2 0x27F SWAP1 DUP3 PUSH2 0x45B JUMP JUMPDEST POP POP CALLER PUSH0 SWAP1 DUP2 MSTORE PUSH1 0x3 PUSH1 0x20 SWAP1 DUP2 MSTORE PUSH1 0x40 SWAP2 DUP3 SWAP1 KECCAK256 DUP5 MLOAD DUP2 SSTORE SWAP1 DUP5 ADD MLOAD PUSH1 0x1 DUP3 ADD DUP1 SLOAD PUSH1 0x1 PUSH1 0x1 PUSH1 0xA0 SHL SUB NOT AND PUSH1 0x1 PUSH1 0x1 PUSH1 0xA0 SHL SUB SWAP1 SWAP3 AND SWAP2 SWAP1 SWAP2 OR SWAP1 SSTORE SWAP1 DUP4 ADD MLOAD DUP4 SWAP3 POP PUSH1 0x2 DUP3 ADD SWAP1 PUSH2 0x2D2 SWAP1 DUP3 PUSH2 0x45B JUMP JUMPDEST POP POP PUSH1 0x40 DUP1 MLOAD PUSH1 0x60 DUP1 DUP3 ADD DUP4 MSTORE PUSH0 DUP1 DUP4 MSTORE PUSH1 0x20 DUP4 ADD MSTORE SWAP2 ADD MSTORE POP POP POP POP JUMP JUMPDEST PUSH1 0x1 SLOAD PUSH1 0x1 PUSH1 0x1 PUSH1 0xA0 SHL SUB AND CALLER EQ PUSH2 0x338 JUMPI PUSH1 0x40 MLOAD PUSH3 0x461BCD PUSH1 0xE5 SHL DUP2 MSTORE PUSH1 0x20 PUSH1 0x4 DUP3 ADD MSTORE PUSH1 0xA PUSH1 0x24 DUP3 ADD MSTORE PUSH10 0x37B7363C9030B236B4B7 PUSH1 0xB1 SHL PUSH1 0x44 DUP3 ADD MSTORE PUSH1 0x64 ADD PUSH2 0xEB JUMP JUMPDEST PUSH1 0x5 PUSH0 SSTORE JUMP JUMPDEST PUSH0 PUSH1 0x20 DUP3 DUP5 SUB SLT ISZERO PUSH2 0x34E JUMPI PUSH0 DUP1 REVERT JUMPDEST POP CALLDATALOAD SWAP2 SWAP1 POP JUMP JUMPDEST PUSH0 DUP1 PUSH1 0x20 DUP4 DUP6 SUB SLT ISZERO PUSH2 0x366 JUMPI PUSH0 DUP1 REVERT JUMPDEST DUP3 CALLDATALOAD PUSH8 0xFFFFFFFFFFFFFFFF DUP1 DUP3 GT ISZERO PUSH2 0x37D JUMPI PUSH0 DUP1 REVERT JUMPDEST DUP2 DUP6 ADD SWAP2 POP DUP6 PUSH1 0x1F DUP4 ADD SLT PUSH2 0x390 JUMPI PUSH0 DUP1 REVERT JUMPDEST DUP2 CALLDATALOAD DUP2 DUP2 GT ISZERO PUSH2 0x39E JUMPI PUSH0 DUP1 REVERT JUMPDEST DUP7 PUSH1 0x20 DUP3 DUP6 ADD ADD GT ISZERO PUSH2 0x3AF JUMPI PUSH0 DUP1 REVERT JUMPDEST PUSH1 0x20 SWAP3 SWAP1 SWAP3 ADD SWAP7 SWAP2 SWAP6 POP SWAP1 SWAP4 POP POP POP POP JUMP JUMPDEST PUSH4 0x4E487B71 PUSH1 0xE0 SHL PUSH0 MSTORE PUSH1 0x41 PUSH1 0x4 MSTORE PUSH1 0x24 PUSH0 REVERT JUMPDEST PUSH1 0x1 DUP2 DUP2 SHR SWAP1 DUP3 AND DUP1 PUSH2 0x3E9 JUMPI PUSH1 0x7F DUP3 AND SWAP2 POP JUMPDEST PUSH1 0x20 DUP3 LT DUP2 SUB PUSH2 0x407 JUMPI PUSH4 0x4E487B71 PUSH1 0xE0 SHL PUSH0 MSTORE PUSH1 0x22 PUSH1 0x4 MSTORE PUSH1 0x24 PUSH0 REVERT JUMPDEST POP SWAP2 SWAP1 POP JUMP JUMPDEST PUSH1 0x1F DUP3 GT ISZERO PUSH2 0x456 JUMPI PUSH0 DUP2 DUP2 MSTORE PUSH1 0x20 DUP2 KECCAK256 PUSH1 0x1F DUP6 ADD PUSH1 0x5 SHR DUP2 ADD PUSH1 0x20 DUP7 LT ISZERO PUSH2 0x433 JUMPI POP DUP1 JUMPDEST PUSH1 0x1F DUP6 ADD PUSH1 0x5 SHR DUP3 ADD SWAP2 POP JUMPDEST DUP2 DUP2 LT ISZERO PUSH2 0x452 JUMPI DUP3 DUP2 SSTORE PUSH1 0x1 ADD PUSH2 0x43F JUMP JUMPDEST POP POP POP JUMPDEST POP POP POP JUMP JUMPDEST DUP2 MLOAD PUSH8 0xFFFFFFFFFFFFFFFF DUP2 GT ISZERO PUSH2 0x475 JUMPI PUSH2 0x475 PUSH2 0x3C1 JUMP JUMPDEST PUSH2 0x489 DUP2 PUSH2 0x483 DUP5 SLOAD PUSH2 0x3D5 JUMP JUMPDEST DUP5 PUSH2 0x40D JUMP JUMPDEST PUSH1 0x20 DUP1 PUSH1 0x1F DUP4 GT PUSH1 0x1 DUP2 EQ PUSH2 0x4BC JUMPI PUSH0 DUP5 ISZERO PUSH2 0x4A5 JUMPI POP DUP6 DUP4 ADD MLOAD JUMPDEST PUSH0 NOT PUSH1 0x3 DUP7 SWAP1 SHL SHR NOT AND PUSH1 0x1 DUP6 SWAP1 SHL OR DUP6 SSTORE PUSH2 0x452 JUMP JUMPDEST PUSH0 DUP6 DUP2 MSTORE PUSH1 0x20 DUP2 KECCAK256 PUSH1 0x1F NOT DUP7 AND SWAP2 JUMPDEST DUP3 DUP2 LT ISZERO PUSH2 0x4EA JUMPI DUP9 DUP7 ADD MLOAD DUP3 SSTORE SWAP5 DUP5 ADD SWAP5 PUSH1 0x1 SWAP1 SWAP2 ADD SWAP1 DUP5 ADD PUSH2 0x4CB JUMP JUMPDEST POP DUP6 DUP3 LT ISZERO PUSH2 0x507 JUMPI DUP8 DUP6 ADD MLOAD PUSH0 NOT PUSH1 0x3 DUP9 SWAP1 SHL PUSH1 0xF8 AND SHR NOT AND DUP2 SSTORE JUMPDEST POP POP POP POP POP PUSH1 0x1 SWAP1 DUP2 SHL ADD SWAP1 SSTORE POP JUMP INVALID LOG2 PUSH5 0x6970667358 0x22 SLT KECCAK256 0xC5 JUMP EXTCODESIZE CHAINID DUP8 SWAP13 0xAA 0x2F 0xE2 EXTCODECOPY NOT LT 0xBE 0xB4 0xCF ADDRESS 0x4F 0xD4 0x2E 0xEF PUSH15 0x944DD48094EDC57CA3389364736F6C PUSH4 0x43000814 STOP CALLER "
				},
				"gasEstimates": {
					"creation": {
						"codeDepositCost": "271400",
						"executionCost": "68757",
						"totalCost": "340157"
					},
					"external": {
						"a()": "2259",
						"bar()": "24454",
						"foo(string)": "infinite",
						"foo(uint256)": "26575",
						"z()": "22259"
					}
				},
				"methodIdentifiers": {
					"a()": "0dbe671f",
					"bar()": "febb0f7e",
					"foo(string)": "f31a6969",
					"foo(uint256)": "2fbebd38",
					"z()": "c5d7802e"
				}
			},
			"storageLayout": {
				"storage": [
					{
						"astId": 4,
						"contract": "contracts/Inheritance.sol:Inheritance",
						"label": "a",
						"offset": 0,
						"slot": "0",
						"type": "t_uint256"
					},
					{
						"astId": 46,
						"contract": "contracts/Inheritance.sol:Inheritance",
						"label": "Admin",
						"offset": 0,
						"slot": "1",
						"type": "t_address"
					},
					{
						"astId": 102,
						"contract": "contracts/Inheritance.sol:Inheritance",
						"label": "players",
						"offset": 0,
						"slot": "2",
						"type": "t_array(t_struct(Player)98_storage)dyn_storage"
					},
					{
						"astId": 107,
						"contract": "contracts/Inheritance.sol:Inheritance",
						"label": "ListOfPlayers",
						"offset": 0,
						"slot": "3",
						"type": "t_mapping(t_address,t_struct(Player)98_storage)"
					},
					{
						"astId": 80,
						"contract": "contracts/Inheritance.sol:Inheritance",
						"label": "b",
						"offset": 0,
						"slot": "4",
						"type": "t_uint256"
					}
				],
				"types": {
					"t_address": {
						"encoding": "inplace",
						"label": "address",
						"numberOfBytes": "20"
					},
					"t_array(t_struct(Player)98_storage)dyn_storage": {
						"base": "t_struct(Player)98_storage",
						"encoding": "dynamic_array",
						"label": "struct Struct.Player[]",
						"numberOfBytes": "32"
					},
					"t_mapping(t_address,t_struct(Player)98_storage)": {
						"encoding": "mapping",
						"key": "t_address",
						"label": "mapping(address => struct Struct.Player)",
						"numberOfBytes": "32",
						"value": "t_struct(Player)98_storage"
					},
					"t_string_storage": {
						"encoding": "bytes",
						"label": "string",
						"numberOfBytes": "32"
					},
					"t_struct(Player)98_storage": {
						"encoding": "inplace",
						"label": "struct Struct.Player",
						"members": [
							{
								"astId": 93,
								"contract": "contracts/Inheritance.sol:Inheritance",
								"label": "id",
								"offset": 0,
								"slot": "0",
								"type": "t_uint256"
							},
							{
								"astId": 95,
								"contract": "contracts/Inheritance.sol:Inheritance",
								"label": "addr",
								"offset": 0,
								"slot": "1",
								"type": "t_address"
							},
							{
								"astId": 97,
								"contract": "contracts/Inheritance.sol:Inheritance",
								"label": "name",
								"offset": 0,
								"slot": "2",
								"type": "t_string_storage"
							}
						],
						"numberOfBytes": "96"
					},
					"t_uint256": {
						"encoding": "inplace",
						"label": "uint256",
						"numberOfBytes": "32"
					}
				}
			},
			"userdoc": {
				"kind": "user",
				"methods": {},
				"version": 1
			}
		}
	}
}