{
	"contracts/Array.sol": {
		"Array": {
			"abi": [
				{
					"inputs": [],
					"name": "DoSmt",
					"outputs": [],
					"stateMutability": "nonpayable",
					"type": "function"
				},
				{
					"inputs": [],
					"name": "bar",
					"outputs": [],
					"stateMutability": "pure",
					"type": "function"
				},
				{
					"inputs": [
						{
							"internalType": "uint256[]",
							"name": "args",
							"type": "uint256[]"
						}
					],
					"name": "foo",
					"outputs": [],
					"stateMutability": "nonpayable",
					"type": "function"
				}
			],
			"devdoc": {
				"kind": "dev",
				"methods": {},
				"version": 1
			},
			"evm": {
				"assembly": "    /* \"contracts/Array.sol\":57:771  contract Array {... */\n  mstore(0x40, 0x80)\n  callvalue\n  dup1\n  iszero\n  tag_1\n  jumpi\n  0x00\n  dup1\n  revert\ntag_1:\n  pop\n  dataSize(sub_0)\n  dup1\n  dataOffset(sub_0)\n  0x00\n  codecopy\n  0x00\n  return\nstop\n\nsub_0: assembly {\n        /* \"contracts/Array.sol\":57:771  contract Array {... */\n      mstore(0x40, 0x80)\n      callvalue\n      dup1\n      iszero\n      tag_1\n      jumpi\n      0x00\n      dup1\n      revert\n    tag_1:\n      pop\n      jumpi(tag_2, lt(calldatasize, 0x04))\n      shr(0xe0, calldataload(0x00))\n      dup1\n      0x3dc9c4ac\n      eq\n      tag_3\n      jumpi\n      dup1\n      0x8b44cef1\n      eq\n      tag_4\n      jumpi\n      dup1\n      0xfebb0f7e\n      eq\n      tag_5\n      jumpi\n    tag_2:\n      0x00\n      dup1\n      revert\n        /* \"contracts/Array.sol\":170:392  function DoSmt() external  {... */\n    tag_3:\n      tag_6\n      tag_7\n      jump\t// in\n    tag_6:\n      stop\n        /* \"contracts/Array.sol\":648:769  function foo(uint[] calldata args) external {... */\n    tag_4:\n      tag_6\n      tag_9\n      calldatasize\n      0x04\n      tag_10\n      jump\t// in\n    tag_9:\n      pop\n      pop\n      jump\n        /* \"contracts/Array.sol\":419:618  function bar() external pure  {... */\n    tag_5:\n      tag_6\n      tag_13\n      jump\t// in\n        /* \"contracts/Array.sol\":170:392  function DoSmt() external  {... */\n    tag_7:\n        /* \"contracts/Array.sol\":207:210  arr */\n      0x00\n        /* \"contracts/Array.sol\":207:218  arr.push(2) */\n      dup1\n      sload\n      0x01\n      dup2\n      dup2\n      add\n      dup4\n      sstore\n      dup3\n      dup1\n      mstore\n        /* \"contracts/Array.sol\":216:217  2 */\n      0x02\n        /* \"contracts/Array.sol\":207:218  arr.push(2) */\n      0x290decd9548b62a8d60345a988386fc84ba6bc95484008f6362f93160ef3e563\n      swap3\n      dup4\n      add\n      sstore\n        /* \"contracts/Array.sol\":235:246  arr.push(5) */\n      dup3\n      sload\n      dup1\n      dup3\n      add\n      dup5\n      sstore\n        /* \"contracts/Array.sol\":244:245  5 */\n      0x05\n        /* \"contracts/Array.sol\":235:246  arr.push(5) */\n      swap3\n      add\n      swap2\n      swap1\n      swap2\n      sstore\n        /* \"contracts/Array.sol\":265:271  arr[0] */\n      dup2\n      sload\n        /* \"contracts/Array.sol\":207:218  arr.push(2) */\n      swap1\n      swap2\n        /* \"contracts/Array.sol\":207:210  arr */\n      swap1\n      dup2\n      swap1\n        /* \"contracts/Array.sol\":265:271  arr[0] */\n      tag_18\n      jumpi\n      tag_18\n      tag_19\n      jump\t// in\n    tag_18:\n      swap1\n      0x00\n      mstore\n      keccak256(0x00, 0x20)\n      add\n        /* \"contracts/Array.sol\":265:275  arr[0] = 1 */\n      dup2\n      swap1\n      sstore\n      pop\n        /* \"contracts/Array.sol\":302:305  arr */\n      0x00\n        /* \"contracts/Array.sol\":306:307  0 */\n      dup1\n        /* \"contracts/Array.sol\":302:308  arr[0] */\n      dup2\n      sload\n      dup2\n      lt\n      tag_22\n      jumpi\n      tag_22\n      tag_19\n      jump\t// in\n    tag_22:\n      swap1\n      0x00\n      mstore\n      keccak256(0x00, 0x20)\n      add\n        /* \"contracts/Array.sol\":295:308  delete arr[0] */\n      0x00\n      swap1\n      sstore\n        /* \"contracts/Array.sol\":336:342  uint i */\n      0x00\n        /* \"contracts/Array.sol\":331:386  for (uint i=0;i<arr.length;i++){... */\n    tag_24:\n        /* \"contracts/Array.sol\":347:350  arr */\n      0x00\n        /* \"contracts/Array.sol\":347:357  arr.length */\n      sload\n        /* \"contracts/Array.sol\":345:357  i<arr.length */\n      dup2\n      lt\n        /* \"contracts/Array.sol\":331:386  for (uint i=0;i<arr.length;i++){... */\n      iszero\n      tag_25\n      jumpi\n        /* \"contracts/Array.sol\":358:361  i++ */\n      dup1\n      tag_27\n      dup2\n      tag_28\n      jump\t// in\n    tag_27:\n      swap2\n      pop\n      pop\n        /* \"contracts/Array.sol\":331:386  for (uint i=0;i<arr.length;i++){... */\n      jump(tag_24)\n    tag_25:\n      pop\n        /* \"contracts/Array.sol\":170:392  function DoSmt() external  {... */\n      jump\t// out\n        /* \"contracts/Array.sol\":419:618  function bar() external pure  {... */\n    tag_13:\n        /* \"contracts/Array.sol\":482:496  new uint[](10) */\n      0x40\n      dup1\n      mload\n        /* \"contracts/Array.sol\":493:495  10 */\n      0x0a\n        /* \"contracts/Array.sol\":482:496  new uint[](10) */\n      dup1\n      dup3\n      mstore\n      0x0160\n      dup3\n      add\n      swap1\n      swap3\n      mstore\n        /* \"contracts/Array.sol\":459:479  uint[] memory newArr */\n      0x00\n      swap2\n        /* \"contracts/Array.sol\":482:496  new uint[](10) */\n      0x20\n      dup3\n      add\n      0x0140\n      dup1\n      calldatasize\n      dup4\n      calldatacopy\n      add\n      swap1\n      pop\n      pop\n        /* \"contracts/Array.sol\":459:496  uint[] memory newArr = new uint[](10) */\n      swap1\n      pop\n        /* \"contracts/Array.sol\":537:538  4 */\n      0x04\n        /* \"contracts/Array.sol\":527:533  newArr */\n      dup2\n        /* \"contracts/Array.sol\":534:535  0 */\n      0x00\n        /* \"contracts/Array.sol\":527:536  newArr[0] */\n      dup2\n      mload\n      dup2\n      lt\n      tag_36\n      jumpi\n      tag_36\n      tag_19\n      jump\t// in\n    tag_36:\n      0x20\n      mul\n      0x20\n      add\n      add\n        /* \"contracts/Array.sol\":527:538  newArr[0]=4 */\n      dup2\n      dup2\n      mstore\n      pop\n      pop\n        /* \"contracts/Array.sol\":565:566  7 */\n      0x07\n        /* \"contracts/Array.sol\":555:561  newArr */\n      dup2\n        /* \"contracts/Array.sol\":562:563  1 */\n      0x01\n        /* \"contracts/Array.sol\":555:564  newArr[1] */\n      dup2\n      mload\n      dup2\n      lt\n      tag_38\n      jumpi\n      tag_38\n      tag_19\n      jump\t// in\n    tag_38:\n      0x20\n      mul\n      0x20\n      add\n      add\n        /* \"contracts/Array.sol\":555:566  newArr[1]=7 */\n      dup2\n      dup2\n      mstore\n      pop\n      pop\n        /* \"contracts/Array.sol\":593:599  newArr */\n      dup1\n        /* \"contracts/Array.sol\":600:601  0 */\n      0x00\n        /* \"contracts/Array.sol\":593:602  newArr[0] */\n      dup2\n      mload\n      dup2\n      lt\n      tag_40\n      jumpi\n      tag_40\n      tag_19\n      jump\t// in\n    tag_40:\n      0x20\n      mul\n      0x20\n      add\n      add\n        /* \"contracts/Array.sol\":586:602  delete newArr[0] */\n      0x00\n      dup2\n      mstore\n      pop\n        /* \"contracts/Array.sol\":449:618  {... */\n      pop\n        /* \"contracts/Array.sol\":419:618  function bar() external pure  {... */\n      jump\t// out\n        /* \"#utility.yul\":14:629   */\n    tag_10:\n        /* \"#utility.yul\":100:106   */\n      0x00\n        /* \"#utility.yul\":108:114   */\n      dup1\n        /* \"#utility.yul\":161:163   */\n      0x20\n        /* \"#utility.yul\":149:158   */\n      dup4\n        /* \"#utility.yul\":140:147   */\n      dup6\n        /* \"#utility.yul\":136:159   */\n      sub\n        /* \"#utility.yul\":132:164   */\n      slt\n        /* \"#utility.yul\":129:181   */\n      iszero\n      tag_43\n      jumpi\n        /* \"#utility.yul\":177:178   */\n      0x00\n        /* \"#utility.yul\":174:175   */\n      dup1\n        /* \"#utility.yul\":167:179   */\n      revert\n        /* \"#utility.yul\":129:181   */\n    tag_43:\n        /* \"#utility.yul\":217:226   */\n      dup3\n        /* \"#utility.yul\":204:227   */\n      calldataload\n        /* \"#utility.yul\":246:264   */\n      0xffffffffffffffff\n        /* \"#utility.yul\":287:289   */\n      dup1\n        /* \"#utility.yul\":279:285   */\n      dup3\n        /* \"#utility.yul\":276:290   */\n      gt\n        /* \"#utility.yul\":273:307   */\n      iszero\n      tag_44\n      jumpi\n        /* \"#utility.yul\":303:304   */\n      0x00\n        /* \"#utility.yul\":300:301   */\n      dup1\n        /* \"#utility.yul\":293:305   */\n      revert\n        /* \"#utility.yul\":273:307   */\n    tag_44:\n        /* \"#utility.yul\":341:347   */\n      dup2\n        /* \"#utility.yul\":330:339   */\n      dup6\n        /* \"#utility.yul\":326:348   */\n      add\n        /* \"#utility.yul\":316:348   */\n      swap2\n      pop\n        /* \"#utility.yul\":386:393   */\n      dup6\n        /* \"#utility.yul\":379:383   */\n      0x1f\n        /* \"#utility.yul\":375:377   */\n      dup4\n        /* \"#utility.yul\":371:384   */\n      add\n        /* \"#utility.yul\":367:394   */\n      slt\n        /* \"#utility.yul\":357:412   */\n      tag_45\n      jumpi\n        /* \"#utility.yul\":408:409   */\n      0x00\n        /* \"#utility.yul\":405:406   */\n      dup1\n        /* \"#utility.yul\":398:410   */\n      revert\n        /* \"#utility.yul\":357:412   */\n    tag_45:\n        /* \"#utility.yul\":448:450   */\n      dup2\n        /* \"#utility.yul\":435:451   */\n      calldataload\n        /* \"#utility.yul\":474:476   */\n      dup2\n        /* \"#utility.yul\":466:472   */\n      dup2\n        /* \"#utility.yul\":463:477   */\n      gt\n        /* \"#utility.yul\":460:494   */\n      iszero\n      tag_46\n      jumpi\n        /* \"#utility.yul\":490:491   */\n      0x00\n        /* \"#utility.yul\":487:488   */\n      dup1\n        /* \"#utility.yul\":480:492   */\n      revert\n        /* \"#utility.yul\":460:494   */\n    tag_46:\n        /* \"#utility.yul\":543:550   */\n      dup7\n        /* \"#utility.yul\":538:540   */\n      0x20\n        /* \"#utility.yul\":528:534   */\n      dup3\n        /* \"#utility.yul\":525:526   */\n      0x05\n        /* \"#utility.yul\":521:535   */\n      shl\n        /* \"#utility.yul\":517:519   */\n      dup6\n        /* \"#utility.yul\":513:536   */\n      add\n        /* \"#utility.yul\":509:541   */\n      add\n        /* \"#utility.yul\":506:551   */\n      gt\n        /* \"#utility.yul\":503:568   */\n      iszero\n      tag_47\n      jumpi\n        /* \"#utility.yul\":564:565   */\n      0x00\n        /* \"#utility.yul\":561:562   */\n      dup1\n        /* \"#utility.yul\":554:566   */\n      revert\n        /* \"#utility.yul\":503:568   */\n    tag_47:\n        /* \"#utility.yul\":595:597   */\n      0x20\n        /* \"#utility.yul\":587:598   */\n      swap3\n      swap1\n      swap3\n      add\n      swap7\n        /* \"#utility.yul\":617:623   */\n      swap2\n      swap6\n      pop\n        /* \"#utility.yul\":14:629   */\n      swap1\n      swap4\n      pop\n      pop\n      pop\n      pop\n      jump\t// out\n        /* \"#utility.yul\":634:761   */\n    tag_19:\n        /* \"#utility.yul\":695:705   */\n      0x4e487b71\n        /* \"#utility.yul\":690:693   */\n      0xe0\n        /* \"#utility.yul\":686:706   */\n      shl\n        /* \"#utility.yul\":683:684   */\n      0x00\n        /* \"#utility.yul\":676:707   */\n      mstore\n        /* \"#utility.yul\":726:730   */\n      0x32\n        /* \"#utility.yul\":723:724   */\n      0x04\n        /* \"#utility.yul\":716:731   */\n      mstore\n        /* \"#utility.yul\":750:754   */\n      0x24\n        /* \"#utility.yul\":747:748   */\n      0x00\n        /* \"#utility.yul\":740:755   */\n      revert\n        /* \"#utility.yul\":766:998   */\n    tag_28:\n        /* \"#utility.yul\":805:808   */\n      0x00\n        /* \"#utility.yul\":826:843   */\n      0x01\n      dup3\n      add\n        /* \"#utility.yul\":823:963   */\n      tag_50\n      jumpi\n        /* \"#utility.yul\":885:895   */\n      0x4e487b71\n        /* \"#utility.yul\":880:883   */\n      0xe0\n        /* \"#utility.yul\":876:896   */\n      shl\n        /* \"#utility.yul\":873:874   */\n      0x00\n        /* \"#utility.yul\":866:897   */\n      mstore\n        /* \"#utility.yul\":920:924   */\n      0x11\n        /* \"#utility.yul\":917:918   */\n      0x04\n        /* \"#utility.yul\":910:925   */\n      mstore\n        /* \"#utility.yul\":948:952   */\n      0x24\n        /* \"#utility.yul\":945:946   */\n      0x00\n        /* \"#utility.yul\":938:953   */\n      revert\n        /* \"#utility.yul\":823:963   */\n    tag_50:\n      pop\n        /* \"#utility.yul\":990:991   */\n      0x01\n        /* \"#utility.yul\":979:992   */\n      add\n      swap1\n        /* \"#utility.yul\":766:998   */\n      jump\t// out\n\n    auxdata: 0xa26469706673582212209faef7ef79a4c0fd07e98416cdb48be52313523da815fbdea0caef71a808e5db64736f6c63430008140033\n}\n",
				"bytecode": {
					"linkReferences": {},
					"object": "608060405234801561000f575f80fd5b506102688061001d5f395ff3fe608060405234801561000f575f80fd5b506004361061003f575f3560e01c80633dc9c4ac146100435780638b44cef11461004d578063febb0f7e1461005f575b5f80fd5b61004b610067565b005b61004b61005b36600461018b565b5050565b61004b610106565b5f80546001818101835582805260027f290decd9548b62a8d60345a988386fc84ba6bc95484008f6362f93160ef3e56392830155825480820184556005920191909155815490919081906100bd576100bd6101fa565b905f5260205f2001819055505f80815481106100db576100db6101fa565b905f5260205f20015f90555f5b5f5481101561010357806100fb8161020e565b9150506100e8565b50565b60408051600a80825261016082019092525f9160208201610140803683370190505090506004815f8151811061013e5761013e6101fa565b60200260200101818152505060078160018151811061015f5761015f6101fa565b602002602001018181525050805f8151811061017d5761017d6101fa565b602002602001015f81525050565b5f806020838503121561019c575f80fd5b823567ffffffffffffffff808211156101b3575f80fd5b818501915085601f8301126101c6575f80fd5b8135818111156101d4575f80fd5b8660208260051b85010111156101e8575f80fd5b60209290920196919550909350505050565b634e487b7160e01b5f52603260045260245ffd5b5f6001820161022b57634e487b7160e01b5f52601160045260245ffd5b506001019056fea26469706673582212209faef7ef79a4c0fd07e98416cdb48be52313523da815fbdea0caef71a808e5db64736f6c63430008140033",
					"opcodes": "PUSH1 0x80 PUSH1 0x40 MSTORE CALLVALUE DUP1 ISZERO PUSH2 0xF JUMPI PUSH0 DUP1 REVERT JUMPDEST POP PUSH2 0x268 DUP1 PUSH2 0x1D PUSH0 CODECOPY PUSH0 RETURN INVALID PUSH1 0x80 PUSH1 0x40 MSTORE CALLVALUE DUP1 ISZERO PUSH2 0xF JUMPI PUSH0 DUP1 REVERT JUMPDEST POP PUSH1 0x4 CALLDATASIZE LT PUSH2 0x3F JUMPI PUSH0 CALLDATALOAD PUSH1 0xE0 SHR DUP1 PUSH4 0x3DC9C4AC EQ PUSH2 0x43 JUMPI DUP1 PUSH4 0x8B44CEF1 EQ PUSH2 0x4D JUMPI DUP1 PUSH4 0xFEBB0F7E EQ PUSH2 0x5F JUMPI JUMPDEST PUSH0 DUP1 REVERT JUMPDEST PUSH2 0x4B PUSH2 0x67 JUMP JUMPDEST STOP JUMPDEST PUSH2 0x4B PUSH2 0x5B CALLDATASIZE PUSH1 0x4 PUSH2 0x18B JUMP JUMPDEST POP POP JUMP JUMPDEST PUSH2 0x4B PUSH2 0x106 JUMP JUMPDEST PUSH0 DUP1 SLOAD PUSH1 0x1 DUP2 DUP2 ADD DUP4 SSTORE DUP3 DUP1 MSTORE PUSH1 0x2 PUSH32 0x290DECD9548B62A8D60345A988386FC84BA6BC95484008F6362F93160EF3E563 SWAP3 DUP4 ADD SSTORE DUP3 SLOAD DUP1 DUP3 ADD DUP5 SSTORE PUSH1 0x5 SWAP3 ADD SWAP2 SWAP1 SWAP2 SSTORE DUP2 SLOAD SWAP1 SWAP2 SWAP1 DUP2 SWAP1 PUSH2 0xBD JUMPI PUSH2 0xBD PUSH2 0x1FA JUMP JUMPDEST SWAP1 PUSH0 MSTORE PUSH1 0x20 PUSH0 KECCAK256 ADD DUP2 SWAP1 SSTORE POP PUSH0 DUP1 DUP2 SLOAD DUP2 LT PUSH2 0xDB JUMPI PUSH2 0xDB PUSH2 0x1FA JUMP JUMPDEST SWAP1 PUSH0 MSTORE PUSH1 0x20 PUSH0 KECCAK256 ADD PUSH0 SWAP1 SSTORE PUSH0 JUMPDEST PUSH0 SLOAD DUP2 LT ISZERO PUSH2 0x103 JUMPI DUP1 PUSH2 0xFB DUP2 PUSH2 0x20E JUMP JUMPDEST SWAP2 POP POP PUSH2 0xE8 JUMP JUMPDEST POP JUMP JUMPDEST PUSH1 0x40 DUP1 MLOAD PUSH1 0xA DUP1 DUP3 MSTORE PUSH2 0x160 DUP3 ADD SWAP1 SWAP3 MSTORE PUSH0 SWAP2 PUSH1 0x20 DUP3 ADD PUSH2 0x140 DUP1 CALLDATASIZE DUP4 CALLDATACOPY ADD SWAP1 POP POP SWAP1 POP PUSH1 0x4 DUP2 PUSH0 DUP2 MLOAD DUP2 LT PUSH2 0x13E JUMPI PUSH2 0x13E PUSH2 0x1FA JUMP JUMPDEST PUSH1 0x20 MUL PUSH1 0x20 ADD ADD DUP2 DUP2 MSTORE POP POP PUSH1 0x7 DUP2 PUSH1 0x1 DUP2 MLOAD DUP2 LT PUSH2 0x15F JUMPI PUSH2 0x15F PUSH2 0x1FA JUMP JUMPDEST PUSH1 0x20 MUL PUSH1 0x20 ADD ADD DUP2 DUP2 MSTORE POP POP DUP1 PUSH0 DUP2 MLOAD DUP2 LT PUSH2 0x17D JUMPI PUSH2 0x17D PUSH2 0x1FA JUMP JUMPDEST PUSH1 0x20 MUL PUSH1 0x20 ADD ADD PUSH0 DUP2 MSTORE POP POP JUMP JUMPDEST PUSH0 DUP1 PUSH1 0x20 DUP4 DUP6 SUB SLT ISZERO PUSH2 0x19C JUMPI PUSH0 DUP1 REVERT JUMPDEST DUP3 CALLDATALOAD PUSH8 0xFFFFFFFFFFFFFFFF DUP1 DUP3 GT ISZERO PUSH2 0x1B3 JUMPI PUSH0 DUP1 REVERT JUMPDEST DUP2 DUP6 ADD SWAP2 POP DUP6 PUSH1 0x1F DUP4 ADD SLT PUSH2 0x1C6 JUMPI PUSH0 DUP1 REVERT JUMPDEST DUP2 CALLDATALOAD DUP2 DUP2 GT ISZERO PUSH2 0x1D4 JUMPI PUSH0 DUP1 REVERT JUMPDEST DUP7 PUSH1 0x20 DUP3 PUSH1 0x5 SHL DUP6 ADD ADD GT ISZERO PUSH2 0x1E8 JUMPI PUSH0 DUP1 REVERT JUMPDEST PUSH1 0x20 SWAP3 SWAP1 SWAP3 ADD SWAP7 SWAP2 SWAP6 POP SWAP1 SWAP4 POP POP POP POP JUMP JUMPDEST PUSH4 0x4E487B71 PUSH1 0xE0 SHL PUSH0 MSTORE PUSH1 0x32 PUSH1 0x4 MSTORE PUSH1 0x24 PUSH0 REVERT JUMPDEST PUSH0 PUSH1 0x1 DUP3 ADD PUSH2 0x22B JUMPI PUSH4 0x4E487B71 PUSH1 0xE0 SHL PUSH0 MSTORE PUSH1 0x11 PUSH1 0x4 MSTORE PUSH1 0x24 PUSH0 REVERT JUMPDEST POP PUSH1 0x1 ADD SWAP1 JUMP INVALID LOG2 PUSH5 0x6970667358 0x22 SLT KECCAK256 SWAP16 0xAE 0xF7 0xEF PUSH26 0xA4C0FD07E98416CDB48BE52313523DA815FBDEA0CAEF71A808E5 0xDB PUSH5 0x736F6C6343 STOP ADDMOD EQ STOP CALLER "
				},
				"gasEstimates": {
					"creation": {
						"codeDepositCost": "123200",
						"executionCost": "169",
						"totalCost": "123369"
					},
					"external": {
						"DoSmt()": "infinite",
						"bar()": "506",
						"foo(uint256[])": "395"
					}
				},
				"methodIdentifiers": {
					"DoSmt()": "3dc9c4ac",
					"bar()": "febb0f7e",
					"foo(uint256[])": "8b44cef1"
				}
			},
			"storageLayout": {
				"storage": [
					{
						"astId": 4,
						"contract": "contracts/Array.sol:Array",
						"label": "arr",
						"offset": 0,
						"slot": "0",
						"type": "t_array(t_uint256)dyn_storage"
					},
					{
						"astId": 8,
						"contract": "contracts/Array.sol:Array",
						"label": "arr2",
						"offset": 0,
						"slot": "1",
						"type": "t_array(t_uint256)3_storage"
					}
				],
				"types": {
					"t_array(t_uint256)3_storage": {
						"base": "t_uint256",
						"encoding": "inplace",
						"label": "uint256[3]",
						"numberOfBytes": "96"
					},
					"t_array(t_uint256)dyn_storage": {
						"base": "t_uint256",
						"encoding": "dynamic_array",
						"label": "uint256[]",
						"numberOfBytes": "32"
					},
					"t_uint256": {
						"encoding": "inplace",
						"label": "uint256",
						"numberOfBytes": "32"
					}
				}
			},
			"userdoc": {
				"kind": "user",
				"methods": {},
				"version": 1
			}
		}
	}
}